{
  "address": "0x3BcDeF1b7c162B36853945aea9AFE52570bc06ac",
  "abi": [
    {
      "inputs": [
        {
          "internalType": "address",
          "name": "_tau",
          "type": "address"
        },
        {
          "internalType": "address",
          "name": "_tgt",
          "type": "address"
        },
        {
          "internalType": "address",
          "name": "_governance",
          "type": "address"
        },
        {
          "internalType": "address",
          "name": "_multisig",
          "type": "address"
        }
      ],
      "stateMutability": "nonpayable",
      "type": "constructor"
    },
    {
      "anonymous": false,
      "inputs": [
        {
          "indexed": true,
          "internalType": "bytes32",
          "name": "role",
          "type": "bytes32"
        },
        {
          "indexed": true,
          "internalType": "bytes32",
          "name": "previousAdminRole",
          "type": "bytes32"
        },
        {
          "indexed": true,
          "internalType": "bytes32",
          "name": "newAdminRole",
          "type": "bytes32"
        }
      ],
      "name": "RoleAdminChanged",
      "type": "event"
    },
    {
      "anonymous": false,
      "inputs": [
        {
          "indexed": true,
          "internalType": "bytes32",
          "name": "role",
          "type": "bytes32"
        },
        {
          "indexed": true,
          "internalType": "address",
          "name": "account",
          "type": "address"
        },
        {
          "indexed": true,
          "internalType": "address",
          "name": "sender",
          "type": "address"
        }
      ],
      "name": "RoleGranted",
      "type": "event"
    },
    {
      "anonymous": false,
      "inputs": [
        {
          "indexed": true,
          "internalType": "bytes32",
          "name": "role",
          "type": "bytes32"
        },
        {
          "indexed": true,
          "internalType": "address",
          "name": "account",
          "type": "address"
        },
        {
          "indexed": true,
          "internalType": "address",
          "name": "sender",
          "type": "address"
        }
      ],
      "name": "RoleRevoked",
      "type": "event"
    },
    {
      "inputs": [],
      "name": "DEFAULT_ADMIN_ROLE",
      "outputs": [
        {
          "internalType": "bytes32",
          "name": "",
          "type": "bytes32"
        }
      ],
      "stateMutability": "view",
      "type": "function"
    },
    {
      "inputs": [
        {
          "internalType": "bytes32",
          "name": "",
          "type": "bytes32"
        }
      ],
      "name": "addressMapper",
      "outputs": [
        {
          "internalType": "address",
          "name": "",
          "type": "address"
        }
      ],
      "stateMutability": "view",
      "type": "function"
    },
    {
      "inputs": [
        {
          "internalType": "bytes32",
          "name": "role",
          "type": "bytes32"
        }
      ],
      "name": "getRoleAdmin",
      "outputs": [
        {
          "internalType": "bytes32",
          "name": "",
          "type": "bytes32"
        }
      ],
      "stateMutability": "view",
      "type": "function"
    },
    {
      "inputs": [
        {
          "internalType": "bytes32",
          "name": "role",
          "type": "bytes32"
        },
        {
          "internalType": "address",
          "name": "account",
          "type": "address"
        }
      ],
      "name": "grantRole",
      "outputs": [],
      "stateMutability": "nonpayable",
      "type": "function"
    },
    {
      "inputs": [
        {
          "internalType": "bytes32",
          "name": "role",
          "type": "bytes32"
        },
        {
          "internalType": "address",
          "name": "account",
          "type": "address"
        }
      ],
      "name": "hasRole",
      "outputs": [
        {
          "internalType": "bool",
          "name": "",
          "type": "bool"
        }
      ],
      "stateMutability": "view",
      "type": "function"
    },
    {
      "inputs": [
        {
          "internalType": "bytes32",
          "name": "_swapAdapterHash",
          "type": "bytes32"
        },
        {
          "internalType": "address",
          "name": "_swapAdapterAddress",
          "type": "address"
        }
      ],
      "name": "registerSwapAdapter",
      "outputs": [],
      "stateMutability": "nonpayable",
      "type": "function"
    },
    {
      "inputs": [
        {
          "internalType": "bytes32",
          "name": "role",
          "type": "bytes32"
        },
        {
          "internalType": "address",
          "name": "account",
          "type": "address"
        }
      ],
      "name": "renounceRole",
      "outputs": [],
      "stateMutability": "nonpayable",
      "type": "function"
    },
    {
      "inputs": [
        {
          "internalType": "bytes32",
          "name": "role",
          "type": "bytes32"
        },
        {
          "internalType": "address",
          "name": "account",
          "type": "address"
        }
      ],
      "name": "revokeRole",
      "outputs": [],
      "stateMutability": "nonpayable",
      "type": "function"
    },
    {
      "inputs": [
        {
          "internalType": "bytes32",
          "name": "_name",
          "type": "bytes32"
        },
        {
          "internalType": "address",
          "name": "_addr",
          "type": "address"
        }
      ],
      "name": "setAddress",
      "outputs": [],
      "stateMutability": "nonpayable",
      "type": "function"
    },
    {
      "inputs": [
        {
          "internalType": "bytes4",
          "name": "interfaceId",
          "type": "bytes4"
        }
      ],
      "name": "supportsInterface",
      "outputs": [
        {
          "internalType": "bool",
          "name": "",
          "type": "bool"
        }
      ],
      "stateMutability": "view",
      "type": "function"
    },
    {
      "inputs": [
        {
          "internalType": "bytes32",
          "name": "",
          "type": "bytes32"
        }
      ],
      "name": "swapAdapters",
      "outputs": [
        {
          "internalType": "address",
          "name": "",
          "type": "address"
        }
      ],
      "stateMutability": "view",
      "type": "function"
    },
    {
      "inputs": [],
      "name": "tau",
      "outputs": [
        {
          "internalType": "address",
          "name": "",
          "type": "address"
        }
      ],
      "stateMutability": "view",
      "type": "function"
    },
    {
      "inputs": [],
      "name": "tgt",
      "outputs": [
        {
          "internalType": "address",
          "name": "",
          "type": "address"
        }
      ],
      "stateMutability": "view",
      "type": "function"
    }
  ],
  "transactionHash": "0xf44c66423895600090028199c33b403d4ce7d1dc256804e92a750c37162cea1e",
  "args": [
    "0x069142e8BAe358FBD213B0d580e559f000eD33c6",
    "0x9ead9dD5780f529CCed2cf9aB7e4A81f0948fe6b",
    "0xF85497aFcA535236d27dbAA7bd36650DdeB27753",
    "0xF85497aFcA535236d27dbAA7bd36650DdeB27753"
  ],
  "numDeployments": 1,
  "solcInputHash": "905c5c68041e852c361757098a1bcca2",
  "bytecode": "0x60c060405234801561001057600080fd5b50604051610b61380380610b6183398101604081905261002f916101b9565b6001600160a01b03808516608052831660a05261004d6000836100a6565b610065600080516020610b41833981519152826100a6565b61009d7ffc8737ab85eb45125971625a9ebdb75cc78e01d5c1fa80c4c6e5203f47bc4fab600080516020610b418339815191526100b4565b5050505061020d565b6100b082826100ff565b5050565b600082815260208190526040808220600101805490849055905190918391839186917fbd79b86ffe0ab8e8776151514217cd7cacd52c909f66475c3af44e129f0b00ff9190a4505050565b6000828152602081815260408083206001600160a01b038516845290915290205460ff166100b0576000828152602081815260408083206001600160a01b03851684529091529020805460ff191660011790556101593390565b6001600160a01b0316816001600160a01b0316837f2f8788117e7eff1d82e926ec794901d17c78024a50270940304540a733656f0d60405160405180910390a45050565b80516001600160a01b03811681146101b457600080fd5b919050565b600080600080608085870312156101cf57600080fd5b6101d88561019d565b93506101e66020860161019d565b92506101f46040860161019d565b91506102026060860161019d565b905092959194509250565b60805160a05161090f610232600039600061019b01526000610219015261090f6000f3fe608060405234801561001057600080fd5b50600436106100cf5760003560e01c806372c66cba1161008c578063ca446dd911610066578063ca446dd914610201578063cfc4af5514610214578063d547741f1461023b578063f89e2f191461024e57600080fd5b806372c66cba146101bd57806391d14854146101e6578063a217fddf146101f957600080fd5b806301ffc9a7146100d457806309310cf2146100fc578063248a9ca31461013d5780632f2ff15d1461016e57806336568abe1461018357806367abd24c14610196575b600080fd5b6100e76100e236600461070b565b610261565b60405190151581526020015b60405180910390f35b61012561010a366004610735565b6001602052600090815260409020546001600160a01b031681565b6040516001600160a01b0390911681526020016100f3565b61016061014b366004610735565b60009081526020819052604090206001015490565b6040519081526020016100f3565b61018161017c36600461074e565b610298565b005b61018161019136600461074e565b6102c2565b6101257f000000000000000000000000000000000000000000000000000000000000000081565b6101256101cb366004610735565b6002602052600090815260409020546001600160a01b031681565b6100e76101f436600461074e565b610345565b610160600081565b61018161020f36600461074e565b61036e565b6101257f000000000000000000000000000000000000000000000000000000000000000081565b61018161024936600461074e565b6103a8565b61018161025c36600461074e565b6103cd565b60006001600160e01b03198216637965db0b60e01b148061029257506301ffc9a760e01b6001600160e01b03198316145b92915050565b6000828152602081905260409020600101546102b381610407565b6102bd8383610414565b505050565b6001600160a01b03811633146103375760405162461bcd60e51b815260206004820152602f60248201527f416363657373436f6e74726f6c3a2063616e206f6e6c792072656e6f756e636560448201526e103937b632b9903337b91039b2b63360891b60648201526084015b60405180910390fd5b6103418282610498565b5050565b6000918252602082815260408084206001600160a01b0393909316845291905290205460ff1690565b600061037981610407565b5060009182526002602052604090912080546001600160a01b0319166001600160a01b03909216919091179055565b6000828152602081905260409020600101546103c381610407565b6102bd8383610498565b60006103d881610407565b5060009182526001602052604090912080546001600160a01b0319166001600160a01b03909216919091179055565b61041181336104fd565b50565b61041e8282610345565b610341576000828152602081815260408083206001600160a01b03851684529091529020805460ff191660011790556104543390565b6001600160a01b0316816001600160a01b0316837f2f8788117e7eff1d82e926ec794901d17c78024a50270940304540a733656f0d60405160405180910390a45050565b6104a28282610345565b15610341576000828152602081815260408083206001600160a01b0385168085529252808320805460ff1916905551339285917ff6391f5c32d9c69d2a47ea670b442974b53935d1edc7fd64eb21e047a839171b9190a45050565b6105078282610345565b6103415761051481610556565b61051f836020610568565b6040516020016105309291906107ae565b60408051601f198184030181529082905262461bcd60e51b825261032e91600401610823565b60606102926001600160a01b03831660145b6060600061057783600261086c565b610582906002610883565b67ffffffffffffffff81111561059a5761059a610896565b6040519080825280601f01601f1916602001820160405280156105c4576020820181803683370190505b509050600360fc1b816000815181106105df576105df6108ac565b60200101906001600160f81b031916908160001a905350600f60fb1b8160018151811061060e5761060e6108ac565b60200101906001600160f81b031916908160001a905350600061063284600261086c565b61063d906001610883565b90505b60018111156106b5576f181899199a1a9b1b9c1cb0b131b232b360811b85600f1660108110610671576106716108ac565b1a60f81b828281518110610687576106876108ac565b60200101906001600160f81b031916908160001a90535060049490941c936106ae816108c2565b9050610640565b5083156107045760405162461bcd60e51b815260206004820181905260248201527f537472696e67733a20686578206c656e67746820696e73756666696369656e74604482015260640161032e565b9392505050565b60006020828403121561071d57600080fd5b81356001600160e01b03198116811461070457600080fd5b60006020828403121561074757600080fd5b5035919050565b6000806040838503121561076157600080fd5b8235915060208301356001600160a01b038116811461077f57600080fd5b809150509250929050565b60005b838110156107a557818101518382015260200161078d565b50506000910152565b7f416363657373436f6e74726f6c3a206163636f756e74200000000000000000008152600083516107e681601785016020880161078a565b7001034b99036b4b9b9b4b733903937b6329607d1b601791840191820152835161081781602884016020880161078a565b01602801949350505050565b602081526000825180602084015261084281604085016020870161078a565b601f01601f19169190910160400192915050565b634e487b7160e01b600052601160045260246000fd5b808202811582820484141761029257610292610856565b8082018082111561029257610292610856565b634e487b7160e01b600052604160045260246000fd5b634e487b7160e01b600052603260045260246000fd5b6000816108d1576108d1610856565b50600019019056fea2646970667358221220e0d877bf3717a80a566aa0a7e0462e98eab5495d511831b76eb42d2459bca2a864736f6c63430008110033a5a0b70b385ff7611cd3840916bd08b10829e5bf9e6637cf79dd9a427fc0e2ab",
  "devdoc": {
    "kind": "dev",
    "methods": {
      "constructor": {
        "params": {
          "_governance": "address of the Governor",
          "_multisig": "address of the team multisig",
          "_tau": "address of the TAU token",
          "_tgt": "address of the TGT token"
        }
      },
      "getRoleAdmin(bytes32)": {
        "details": "Returns the admin role that controls `role`. See {grantRole} and {revokeRole}. To change a role's admin, use {_setRoleAdmin}."
      },
      "grantRole(bytes32,address)": {
        "details": "Grants `role` to `account`. If `account` had not been already granted `role`, emits a {RoleGranted} event. Requirements: - the caller must have ``role``'s admin role. May emit a {RoleGranted} event."
      },
      "hasRole(bytes32,address)": {
        "details": "Returns `true` if `account` has been granted `role`."
      },
      "registerSwapAdapter(bytes32,address)": {
        "details": "function to allow governance to add new swap adapters. Note that this function is also capable of editing existing swap adapter addresses.",
        "params": {
          "_swapAdapterAddress": "is the address of the swap adapter contract.",
          "_swapAdapterHash": "is the hash of the swap adapter name, i.e. keccak256(\"UniswapSwapAdapter\")"
        }
      },
      "renounceRole(bytes32,address)": {
        "details": "Revokes `role` from the calling account. Roles are often managed via {grantRole} and {revokeRole}: this function's purpose is to provide a mechanism for accounts to lose their privileges if they are compromised (such as when a trusted device is misplaced). If the calling account had been revoked `role`, emits a {RoleRevoked} event. Requirements: - the caller must be `account`. May emit a {RoleRevoked} event."
      },
      "revokeRole(bytes32,address)": {
        "details": "Revokes `role` from `account`. If `account` had been granted `role`, emits a {RoleRevoked} event. Requirements: - the caller must have ``role``'s admin role. May emit a {RoleRevoked} event."
      },
      "supportsInterface(bytes4)": {
        "details": "See {IERC165-supportsInterface}."
      }
    },
    "version": 1
  },
  "userdoc": {
    "kind": "user",
    "methods": {},
    "version": 1
  },
  "storageLayout": {
    "storage": [
      {
        "astId": 646,
        "contract": "contracts/Controller/Controller.sol:Controller",
        "label": "_roles",
        "offset": 0,
        "slot": "0",
        "type": "t_mapping(t_bytes32,t_struct(RoleData)641_storage)"
      },
      {
        "astId": 7514,
        "contract": "contracts/Controller/Controller.sol:Controller",
        "label": "swapAdapters",
        "offset": 0,
        "slot": "1",
        "type": "t_mapping(t_bytes32,t_address)"
      },
      {
        "astId": 7445,
        "contract": "contracts/Controller/Controller.sol:Controller",
        "label": "addressMapper",
        "offset": 0,
        "slot": "2",
        "type": "t_mapping(t_bytes32,t_address)"
      }
    ],
    "types": {
      "t_address": {
        "encoding": "inplace",
        "label": "address",
        "numberOfBytes": "20"
      },
      "t_bool": {
        "encoding": "inplace",
        "label": "bool",
        "numberOfBytes": "1"
      },
      "t_bytes32": {
        "encoding": "inplace",
        "label": "bytes32",
        "numberOfBytes": "32"
      },
      "t_mapping(t_address,t_bool)": {
        "encoding": "mapping",
        "key": "t_address",
        "label": "mapping(address => bool)",
        "numberOfBytes": "32",
        "value": "t_bool"
      },
      "t_mapping(t_bytes32,t_address)": {
        "encoding": "mapping",
        "key": "t_bytes32",
        "label": "mapping(bytes32 => address)",
        "numberOfBytes": "32",
        "value": "t_address"
      },
      "t_mapping(t_bytes32,t_struct(RoleData)641_storage)": {
        "encoding": "mapping",
        "key": "t_bytes32",
        "label": "mapping(bytes32 => struct AccessControl.RoleData)",
        "numberOfBytes": "32",
        "value": "t_struct(RoleData)641_storage"
      },
      "t_struct(RoleData)641_storage": {
        "encoding": "inplace",
        "label": "struct AccessControl.RoleData",
        "members": [
          {
            "astId": 638,
            "contract": "contracts/Controller/Controller.sol:Controller",
            "label": "members",
            "offset": 0,
            "slot": "0",
            "type": "t_mapping(t_address,t_bool)"
          },
          {
            "astId": 640,
            "contract": "contracts/Controller/Controller.sol:Controller",
            "label": "adminRole",
            "offset": 0,
            "slot": "1",
            "type": "t_bytes32"
          }
        ],
        "numberOfBytes": "64"
      }
    }
  }
}