{
  "address": "0x9D9FEc5B55357e46539B7e85F9B6F8d65EAB6E18",
  "abi": [
    {
      "inputs": [
        {
          "internalType": "address",
          "name": "_controller",
          "type": "address"
        }
      ],
      "stateMutability": "nonpayable",
      "type": "constructor"
    },
    {
      "inputs": [
        {
          "internalType": "uint256",
          "name": "proportionTotal",
          "type": "uint256"
        }
      ],
      "name": "incorrectProportions",
      "type": "error"
    },
    {
      "inputs": [],
      "name": "lengthMismatch",
      "type": "error"
    },
    {
      "inputs": [],
      "name": "notMultisig",
      "type": "error"
    },
    {
      "inputs": [],
      "name": "controller",
      "outputs": [
        {
          "internalType": "address",
          "name": "",
          "type": "address"
        }
      ],
      "stateMutability": "view",
      "type": "function"
    },
    {
      "inputs": [
        {
          "internalType": "address",
          "name": "_token",
          "type": "address"
        }
      ],
      "name": "distributeFees",
      "outputs": [],
      "stateMutability": "nonpayable",
      "type": "function"
    },
    {
      "inputs": [
        {
          "internalType": "uint256",
          "name": "",
          "type": "uint256"
        }
      ],
      "name": "feeRecipients",
      "outputs": [
        {
          "internalType": "address",
          "name": "recipient",
          "type": "address"
        },
        {
          "internalType": "uint256",
          "name": "proportion",
          "type": "uint256"
        }
      ],
      "stateMutability": "view",
      "type": "function"
    },
    {
      "inputs": [],
      "name": "numFeeRecipients",
      "outputs": [
        {
          "internalType": "uint256",
          "name": "",
          "type": "uint256"
        }
      ],
      "stateMutability": "view",
      "type": "function"
    },
    {
      "inputs": [
        {
          "components": [
            {
              "internalType": "address",
              "name": "recipient",
              "type": "address"
            },
            {
              "internalType": "uint256",
              "name": "proportion",
              "type": "uint256"
            }
          ],
          "internalType": "struct FeeSplitter.FeeRecipient[]",
          "name": "_feeRecipients",
          "type": "tuple[]"
        }
      ],
      "name": "setFeeRecipients",
      "outputs": [],
      "stateMutability": "nonpayable",
      "type": "function"
    }
  ],
  "transactionHash": "0x174327d72b8c68caa39e51a66b6043b3907066e65c61643d0127fd48b9a3d80f",
  "args": [
    "0x3BcDeF1b7c162B36853945aea9AFE52570bc06ac"
  ],
  "numDeployments": 1,
  "solcInputHash": "905c5c68041e852c361757098a1bcca2",
  "bytecode": "0x60a060405234801561001057600080fd5b5060405161097d38038061097d83398101604081905261002f91610040565b6001600160a01b0316608052610070565b60006020828403121561005257600080fd5b81516001600160a01b038116811461006957600080fd5b9392505050565b6080516108ec6100916000396000818160f7015261016c01526108ec6000f3fe608060405234801561001057600080fd5b50600436106100575760003560e01c806345e5c95d1461005c57806351fe9eff146100715780639413f25c146100c8578063aaeb81f7146100db578063f77c4791146100f2575b600080fd5b61006f61006a366004610671565b610131565b005b6100a461007f3660046106e6565b600160208190526000918252604090912080549101546001600160a01b039091169082565b604080516001600160a01b0390931683526020830191909152015b60405180910390f35b61006f6100d6366004610717565b6102b5565b6100e460005481565b6040519081526020016100bf565b6101197f000000000000000000000000000000000000000000000000000000000000000081565b6040516001600160a01b0390911681526020016100bf565b604051632474521560e21b81527fa5a0b70b385ff7611cd3840916bd08b10829e5bf9e6637cf79dd9a427fc0e2ab60048201523360248201527f00000000000000000000000000000000000000000000000000000000000000006001600160a01b0316906391d1485490604401602060405180830381865afa1580156101bb573d6000803e3d6000fd5b505050506040513d601f19601f820116820180604052508101906101df919061073b565b6101fc57604051635f5f303560e11b815260040160405180910390fd5b806000805b8281101561027c5784848281811061021b5761021b61075d565b90506040020160200135826102309190610789565b91508484828181106102445761024461075d565b90506040020160016000838152602001908152602001600020818161026991906107a2565b506102759050816107d8565b9050610201565b50670de0b6b3a764000081146102ad5760405163eef25fd760e01b8152600481018290526024015b60405180910390fd5b506000555050565b6040516370a0823160e01b81523060048201526000906001600160a01b038316906370a0823190602401602060405180830381865afa1580156102fc573d6000803e3d6000fd5b505050506040513d601f19601f8201168201806040525081019061032091906107f1565b90508060000361032e575050565b60008054905b818110156103b257600081815260016020818152604092839020835180850190945280546001600160a01b03168085529201549083018190526103a19190670de0b6b3a764000090610386908861080a565b6103909190610821565b6001600160a01b03881691906103b8565b506103ab816107d8565b9050610334565b50505050565b604080516001600160a01b038416602482015260448082018490528251808303909101815260649091019091526020810180516001600160e01b031663a9059cbb60e01b17905261040a90849061040f565b505050565b6000610464826040518060400160405280602081526020017f5361666545524332303a206c6f772d6c6576656c2063616c6c206661696c6564815250856001600160a01b03166104e19092919063ffffffff16565b80519091501561040a5780806020019051810190610482919061073b565b61040a5760405162461bcd60e51b815260206004820152602a60248201527f5361666545524332303a204552433230206f7065726174696f6e20646964206e6044820152691bdd081cdd58d8d9595960b21b60648201526084016102a4565b60606104f084846000856104f8565b949350505050565b6060824710156105595760405162461bcd60e51b815260206004820152602660248201527f416464726573733a20696e73756666696369656e742062616c616e636520666f6044820152651c8818d85b1b60d21b60648201526084016102a4565b600080866001600160a01b031685876040516105759190610867565b60006040518083038185875af1925050503d80600081146105b2576040519150601f19603f3d011682016040523d82523d6000602084013e6105b7565b606091505b50915091506105c8878383876105d3565b979650505050505050565b6060831561064257825160000361063b576001600160a01b0385163b61063b5760405162461bcd60e51b815260206004820152601d60248201527f416464726573733a2063616c6c20746f206e6f6e2d636f6e747261637400000060448201526064016102a4565b50816104f0565b6104f083838151156106575781518083602001fd5b8060405162461bcd60e51b81526004016102a49190610883565b6000806020838503121561068457600080fd5b823567ffffffffffffffff8082111561069c57600080fd5b818501915085601f8301126106b057600080fd5b8135818111156106bf57600080fd5b8660208260061b85010111156106d457600080fd5b60209290920196919550909350505050565b6000602082840312156106f857600080fd5b5035919050565b6001600160a01b038116811461071457600080fd5b50565b60006020828403121561072957600080fd5b8135610734816106ff565b9392505050565b60006020828403121561074d57600080fd5b8151801515811461073457600080fd5b634e487b7160e01b600052603260045260246000fd5b634e487b7160e01b600052601160045260246000fd5b8082018082111561079c5761079c610773565b92915050565b81356107ad816106ff565b81546001600160a01b0319166001600160a01b03919091161781556020919091013560019190910155565b6000600182016107ea576107ea610773565b5060010190565b60006020828403121561080357600080fd5b5051919050565b808202811582820484141761079c5761079c610773565b60008261083e57634e487b7160e01b600052601260045260246000fd5b500490565b60005b8381101561085e578181015183820152602001610846565b50506000910152565b60008251610879818460208701610843565b9190910192915050565b60208152600082518060208401526108a2816040850160208701610843565b601f01601f1916919091016040019291505056fea2646970667358221220a1ce55ac220ef1192d39b53332192d3db1a21749ffa637ee81ba966dde681c9864736f6c63430008110033",
  "devdoc": {
    "kind": "dev",
    "methods": {
      "setFeeRecipients((address,uint256)[])": {
        "details": "set new recipients for protocol yield Note that this does not transfer out existing fees, so if the contract contains fees earmarked for existing recipients, this function will retroactively earmark them for the new recipients."
      }
    },
    "version": 1
  },
  "userdoc": {
    "kind": "user",
    "methods": {},
    "version": 1
  },
  "storageLayout": {
    "storage": [
      {
        "astId": 9547,
        "contract": "contracts/Tokenomics/FeeSplitter.sol:FeeSplitter",
        "label": "numFeeRecipients",
        "offset": 0,
        "slot": "0",
        "type": "t_uint256"
      },
      {
        "astId": 9552,
        "contract": "contracts/Tokenomics/FeeSplitter.sol:FeeSplitter",
        "label": "feeRecipients",
        "offset": 0,
        "slot": "1",
        "type": "t_mapping(t_uint256,t_struct(FeeRecipient)9545_storage)"
      }
    ],
    "types": {
      "t_address": {
        "encoding": "inplace",
        "label": "address",
        "numberOfBytes": "20"
      },
      "t_mapping(t_uint256,t_struct(FeeRecipient)9545_storage)": {
        "encoding": "mapping",
        "key": "t_uint256",
        "label": "mapping(uint256 => struct FeeSplitter.FeeRecipient)",
        "numberOfBytes": "32",
        "value": "t_struct(FeeRecipient)9545_storage"
      },
      "t_struct(FeeRecipient)9545_storage": {
        "encoding": "inplace",
        "label": "struct FeeSplitter.FeeRecipient",
        "members": [
          {
            "astId": 9542,
            "contract": "contracts/Tokenomics/FeeSplitter.sol:FeeSplitter",
            "label": "recipient",
            "offset": 0,
            "slot": "0",
            "type": "t_address"
          },
          {
            "astId": 9544,
            "contract": "contracts/Tokenomics/FeeSplitter.sol:FeeSplitter",
            "label": "proportion",
            "offset": 0,
            "slot": "1",
            "type": "t_uint256"
          }
        ],
        "numberOfBytes": "64"
      },
      "t_uint256": {
        "encoding": "inplace",
        "label": "uint256",
        "numberOfBytes": "32"
      }
    }
  }
}