{
  "address": "0xF7384F44C8B271839342A48a5F281aA691aAC55B",
  "abi": [
    {
      "inputs": [],
      "stateMutability": "nonpayable",
      "type": "constructor"
    },
    {
      "inputs": [],
      "name": "cannotLiquidateHealthyAccount",
      "type": "error"
    },
    {
      "inputs": [],
      "name": "feePercTooLarge",
      "type": "error"
    },
    {
      "inputs": [],
      "name": "incorrectDebtRepayAmount",
      "type": "error"
    },
    {
      "inputs": [],
      "name": "indexOutOfBound",
      "type": "error"
    },
    {
      "inputs": [],
      "name": "insufficientCollateral",
      "type": "error"
    },
    {
      "inputs": [
        {
          "internalType": "uint256",
          "name": "debtRepaid",
          "type": "uint256"
        },
        {
          "internalType": "uint256",
          "name": "collateralReceived",
          "type": "uint256"
        }
      ],
      "name": "insufficientCollateralLiquidated",
      "type": "error"
    },
    {
      "inputs": [],
      "name": "notContract",
      "type": "error"
    },
    {
      "inputs": [],
      "name": "notGovernance",
      "type": "error"
    },
    {
      "inputs": [],
      "name": "notKeeper",
      "type": "error"
    },
    {
      "inputs": [],
      "name": "notLiquidator",
      "type": "error"
    },
    {
      "inputs": [],
      "name": "notMultisig",
      "type": "error"
    },
    {
      "inputs": [],
      "name": "oracleCorrupt",
      "type": "error"
    },
    {
      "inputs": [],
      "name": "tokenCannotBeSwapped",
      "type": "error"
    },
    {
      "inputs": [
        {
          "internalType": "uint256",
          "name": "actualTauReturned",
          "type": "uint256"
        },
        {
          "internalType": "uint256",
          "name": "_minTauReturned",
          "type": "uint256"
        }
      ],
      "name": "tooMuchSlippage",
      "type": "error"
    },
    {
      "inputs": [],
      "name": "unregisteredSwapAdapter",
      "type": "error"
    },
    {
      "inputs": [],
      "name": "userNotFound",
      "type": "error"
    },
    {
      "inputs": [],
      "name": "wrongLiquidationAmount",
      "type": "error"
    },
    {
      "inputs": [],
      "name": "zeroAmount",
      "type": "error"
    },
    {
      "anonymous": false,
      "inputs": [
        {
          "indexed": false,
          "internalType": "address",
          "name": "_liquidator",
          "type": "address"
        },
        {
          "indexed": false,
          "internalType": "address",
          "name": "_account",
          "type": "address"
        },
        {
          "indexed": false,
          "internalType": "uint256",
          "name": "_amount",
          "type": "uint256"
        },
        {
          "indexed": false,
          "internalType": "uint256",
          "name": "_liqFees",
          "type": "uint256"
        }
      ],
      "name": "AccountLiquidated",
      "type": "event"
    },
    {
      "anonymous": false,
      "inputs": [
        {
          "indexed": false,
          "internalType": "address",
          "name": "previousAdmin",
          "type": "address"
        },
        {
          "indexed": false,
          "internalType": "address",
          "name": "newAdmin",
          "type": "address"
        }
      ],
      "name": "AdminChanged",
      "type": "event"
    },
    {
      "anonymous": false,
      "inputs": [
        {
          "indexed": true,
          "internalType": "address",
          "name": "beacon",
          "type": "address"
        }
      ],
      "name": "BeaconUpgraded",
      "type": "event"
    },
    {
      "anonymous": false,
      "inputs": [
        {
          "indexed": false,
          "internalType": "uint8",
          "name": "version",
          "type": "uint8"
        }
      ],
      "name": "Initialized",
      "type": "event"
    },
    {
      "anonymous": false,
      "inputs": [
        {
          "indexed": false,
          "internalType": "address",
          "name": "account",
          "type": "address"
        }
      ],
      "name": "Paused",
      "type": "event"
    },
    {
      "anonymous": false,
      "inputs": [
        {
          "indexed": true,
          "internalType": "address",
          "name": "fromToken",
          "type": "address"
        },
        {
          "indexed": false,
          "internalType": "uint256",
          "name": "feesToProtocol",
          "type": "uint256"
        },
        {
          "indexed": false,
          "internalType": "uint256",
          "name": "fromAmount",
          "type": "uint256"
        },
        {
          "indexed": false,
          "internalType": "uint256",
          "name": "tauReturned",
          "type": "uint256"
        }
      ],
      "name": "Swap",
      "type": "event"
    },
    {
      "anonymous": false,
      "inputs": [
        {
          "indexed": false,
          "internalType": "address",
          "name": "_account",
          "type": "address"
        },
        {
          "indexed": false,
          "internalType": "uint256",
          "name": "_amount",
          "type": "uint256"
        }
      ],
      "name": "TauEarned",
      "type": "event"
    },
    {
      "anonymous": false,
      "inputs": [
        {
          "indexed": false,
          "internalType": "address",
          "name": "account",
          "type": "address"
        }
      ],
      "name": "Unpaused",
      "type": "event"
    },
    {
      "anonymous": false,
      "inputs": [
        {
          "indexed": true,
          "internalType": "address",
          "name": "implementation",
          "type": "address"
        }
      ],
      "name": "Upgraded",
      "type": "event"
    },
    {
      "inputs": [],
      "name": "DRIP_DURATION",
      "outputs": [
        {
          "internalType": "uint256",
          "name": "",
          "type": "uint256"
        }
      ],
      "stateMutability": "view",
      "type": "function"
    },
    {
      "inputs": [],
      "name": "LIQUIDATION_SURCHARGE",
      "outputs": [
        {
          "internalType": "uint256",
          "name": "",
          "type": "uint256"
        }
      ],
      "stateMutability": "view",
      "type": "function"
    },
    {
      "inputs": [],
      "name": "MAX_LIQ_COLL_RATIO",
      "outputs": [
        {
          "internalType": "uint256",
          "name": "",
          "type": "uint256"
        }
      ],
      "stateMutability": "view",
      "type": "function"
    },
    {
      "inputs": [],
      "name": "MAX_LIQ_DISCOUNT",
      "outputs": [
        {
          "internalType": "uint256",
          "name": "",
          "type": "uint256"
        }
      ],
      "stateMutability": "view",
      "type": "function"
    },
    {
      "inputs": [],
      "name": "MIN_COL_RATIO",
      "outputs": [
        {
          "internalType": "uint256",
          "name": "",
          "type": "uint256"
        }
      ],
      "stateMutability": "view",
      "type": "function"
    },
    {
      "inputs": [
        {
          "internalType": "bytes32[]",
          "name": "_feeType",
          "type": "bytes32[]"
        },
        {
          "internalType": "uint256[]",
          "name": "_perc",
          "type": "uint256[]"
        }
      ],
      "name": "addFeePerc",
      "outputs": [],
      "stateMutability": "nonpayable",
      "type": "function"
    },
    {
      "inputs": [],
      "name": "collateralToken",
      "outputs": [
        {
          "internalType": "address",
          "name": "",
          "type": "address"
        }
      ],
      "stateMutability": "view",
      "type": "function"
    },
    {
      "inputs": [],
      "name": "collectYield",
      "outputs": [],
      "stateMutability": "nonpayable",
      "type": "function"
    },
    {
      "inputs": [],
      "name": "controller",
      "outputs": [
        {
          "internalType": "address",
          "name": "",
          "type": "address"
        }
      ],
      "stateMutability": "view",
      "type": "function"
    },
    {
      "inputs": [],
      "name": "cumulativeTauRewardPerCollateral",
      "outputs": [
        {
          "internalType": "uint256",
          "name": "",
          "type": "uint256"
        }
      ],
      "stateMutability": "view",
      "type": "function"
    },
    {
      "inputs": [],
      "name": "disburseTau",
      "outputs": [],
      "stateMutability": "nonpayable",
      "type": "function"
    },
    {
      "inputs": [
        {
          "internalType": "uint256",
          "name": "amount",
          "type": "uint256"
        }
      ],
      "name": "distributeTauRewards",
      "outputs": [],
      "stateMutability": "nonpayable",
      "type": "function"
    },
    {
      "inputs": [],
      "name": "emergencyClosePosition",
      "outputs": [],
      "stateMutability": "nonpayable",
      "type": "function"
    },
    {
      "inputs": [
        {
          "internalType": "address",
          "name": "_account",
          "type": "address"
        }
      ],
      "name": "getAccountHealth",
      "outputs": [
        {
          "internalType": "bool",
          "name": "",
          "type": "bool"
        }
      ],
      "stateMutability": "view",
      "type": "function"
    },
    {
      "inputs": [
        {
          "internalType": "bytes32",
          "name": "_feeType",
          "type": "bytes32"
        }
      ],
      "name": "getFeePerc",
      "outputs": [
        {
          "internalType": "uint256",
          "name": "perc",
          "type": "uint256"
        }
      ],
      "stateMutability": "view",
      "type": "function"
    },
    {
      "inputs": [
        {
          "internalType": "address",
          "name": "_account",
          "type": "address"
        }
      ],
      "name": "getMaxLiquidation",
      "outputs": [
        {
          "internalType": "uint256",
          "name": "maxRepay",
          "type": "uint256"
        }
      ],
      "stateMutability": "view",
      "type": "function"
    },
    {
      "inputs": [
        {
          "internalType": "uint256",
          "name": "_start",
          "type": "uint256"
        },
        {
          "internalType": "uint256",
          "name": "_end",
          "type": "uint256"
        }
      ],
      "name": "getUsers",
      "outputs": [
        {
          "internalType": "address[]",
          "name": "users",
          "type": "address[]"
        }
      ],
      "stateMutability": "view",
      "type": "function"
    },
    {
      "inputs": [],
      "name": "getUsersCount",
      "outputs": [
        {
          "internalType": "uint256",
          "name": "",
          "type": "uint256"
        }
      ],
      "stateMutability": "view",
      "type": "function"
    },
    {
      "inputs": [
        {
          "internalType": "uint256",
          "name": "_start",
          "type": "uint256"
        },
        {
          "internalType": "uint256",
          "name": "_end",
          "type": "uint256"
        }
      ],
      "name": "getUsersDetailsInRange",
      "outputs": [
        {
          "components": [
            {
              "internalType": "uint256",
              "name": "collateral",
              "type": "uint256"
            },
            {
              "internalType": "uint256",
              "name": "debt",
              "type": "uint256"
            },
            {
              "internalType": "uint256",
              "name": "lastUpdatedRewardPerCollateral",
              "type": "uint256"
            },
            {
              "internalType": "uint256",
              "name": "startTimestamp",
              "type": "uint256"
            }
          ],
          "internalType": "struct BaseVault.UserDetails[]",
          "name": "users",
          "type": "tuple[]"
        }
      ],
      "stateMutability": "view",
      "type": "function"
    },
    {
      "inputs": [
        {
          "internalType": "address",
          "name": "_controller",
          "type": "address"
        },
        {
          "internalType": "address",
          "name": "_tau",
          "type": "address"
        },
        {
          "internalType": "address",
          "name": "_collateralToken",
          "type": "address"
        },
        {
          "internalType": "address",
          "name": "_rewardRouter",
          "type": "address"
        }
      ],
      "name": "initialize",
      "outputs": [],
      "stateMutability": "nonpayable",
      "type": "function"
    },
    {
      "inputs": [
        {
          "internalType": "address",
          "name": "_account",
          "type": "address"
        },
        {
          "internalType": "uint256",
          "name": "_debtAmount",
          "type": "uint256"
        },
        {
          "internalType": "uint256",
          "name": "_minExchangeRate",
          "type": "uint256"
        }
      ],
      "name": "liquidate",
      "outputs": [
        {
          "internalType": "bool",
          "name": "",
          "type": "bool"
        }
      ],
      "stateMutability": "nonpayable",
      "type": "function"
    },
    {
      "inputs": [
        {
          "internalType": "uint256",
          "name": "_collateralDelta",
          "type": "uint256"
        },
        {
          "internalType": "uint256",
          "name": "_debtDelta",
          "type": "uint256"
        },
        {
          "internalType": "bool",
          "name": "_increaseCollateral",
          "type": "bool"
        },
        {
          "internalType": "bool",
          "name": "_increaseDebt",
          "type": "bool"
        }
      ],
      "name": "modifyPosition",
      "outputs": [],
      "stateMutability": "nonpayable",
      "type": "function"
    },
    {
      "inputs": [],
      "name": "pause",
      "outputs": [],
      "stateMutability": "nonpayable",
      "type": "function"
    },
    {
      "inputs": [],
      "name": "paused",
      "outputs": [
        {
          "internalType": "bool",
          "name": "",
          "type": "bool"
        }
      ],
      "stateMutability": "view",
      "type": "function"
    },
    {
      "inputs": [],
      "name": "proxiableUUID",
      "outputs": [
        {
          "internalType": "bytes32",
          "name": "",
          "type": "bytes32"
        }
      ],
      "stateMutability": "view",
      "type": "function"
    },
    {
      "inputs": [],
      "name": "rewardRouter",
      "outputs": [
        {
          "internalType": "address",
          "name": "",
          "type": "address"
        }
      ],
      "stateMutability": "view",
      "type": "function"
    },
    {
      "inputs": [
        {
          "internalType": "address",
          "name": "_yieldTokenAddress",
          "type": "address"
        },
        {
          "internalType": "uint256",
          "name": "_yieldTokenAmount",
          "type": "uint256"
        },
        {
          "internalType": "uint256",
          "name": "_minTauReturned",
          "type": "uint256"
        },
        {
          "internalType": "bytes32",
          "name": "_swapAdapterHash",
          "type": "bytes32"
        },
        {
          "internalType": "uint256",
          "name": "_rewardProportion",
          "type": "uint256"
        },
        {
          "internalType": "bytes",
          "name": "_swapParams",
          "type": "bytes"
        }
      ],
      "name": "swapForTau",
      "outputs": [],
      "stateMutability": "nonpayable",
      "type": "function"
    },
    {
      "inputs": [],
      "name": "tau",
      "outputs": [
        {
          "internalType": "address",
          "name": "",
          "type": "address"
        }
      ],
      "stateMutability": "view",
      "type": "function"
    },
    {
      "inputs": [],
      "name": "tauWithheld",
      "outputs": [
        {
          "internalType": "uint256",
          "name": "",
          "type": "uint256"
        }
      ],
      "stateMutability": "view",
      "type": "function"
    },
    {
      "inputs": [],
      "name": "tokensLastDisbursedTimestamp",
      "outputs": [
        {
          "internalType": "uint256",
          "name": "",
          "type": "uint256"
        }
      ],
      "stateMutability": "view",
      "type": "function"
    },
    {
      "inputs": [],
      "name": "unpause",
      "outputs": [],
      "stateMutability": "nonpayable",
      "type": "function"
    },
    {
      "inputs": [
        {
          "internalType": "address",
          "name": "_newRewardRouter",
          "type": "address"
        }
      ],
      "name": "updateRewardRouter",
      "outputs": [],
      "stateMutability": "nonpayable",
      "type": "function"
    },
    {
      "inputs": [
        {
          "internalType": "address",
          "name": "_account",
          "type": "address"
        }
      ],
      "name": "updateRewards",
      "outputs": [],
      "stateMutability": "nonpayable",
      "type": "function"
    },
    {
      "inputs": [
        {
          "internalType": "address",
          "name": "newImplementation",
          "type": "address"
        }
      ],
      "name": "upgradeTo",
      "outputs": [],
      "stateMutability": "nonpayable",
      "type": "function"
    },
    {
      "inputs": [
        {
          "internalType": "address",
          "name": "newImplementation",
          "type": "address"
        },
        {
          "internalType": "bytes",
          "name": "data",
          "type": "bytes"
        }
      ],
      "name": "upgradeToAndCall",
      "outputs": [],
      "stateMutability": "payable",
      "type": "function"
    },
    {
      "inputs": [
        {
          "internalType": "uint256",
          "name": "",
          "type": "uint256"
        }
      ],
      "name": "userAddresses",
      "outputs": [
        {
          "internalType": "address",
          "name": "",
          "type": "address"
        }
      ],
      "stateMutability": "view",
      "type": "function"
    },
    {
      "inputs": [
        {
          "internalType": "address",
          "name": "",
          "type": "address"
        }
      ],
      "name": "userDetails",
      "outputs": [
        {
          "internalType": "uint256",
          "name": "collateral",
          "type": "uint256"
        },
        {
          "internalType": "uint256",
          "name": "debt",
          "type": "uint256"
        },
        {
          "internalType": "uint256",
          "name": "lastUpdatedRewardPerCollateral",
          "type": "uint256"
        },
        {
          "internalType": "uint256",
          "name": "startTimestamp",
          "type": "uint256"
        }
      ],
      "stateMutability": "view",
      "type": "function"
    }
  ],
  "numDeployments": 1,
  "solcInputHash": "905c5c68041e852c361757098a1bcca2",
  "bytecode": "0x60a0604052306080523480156200001557600080fd5b506200002062000026565b620000e8565b600054610100900460ff1615620000935760405162461bcd60e51b815260206004820152602760248201527f496e697469616c697a61626c653a20636f6e747261637420697320696e697469604482015266616c697a696e6760c81b606482015260840160405180910390fd5b60005460ff9081161015620000e6576000805460ff191660ff9081179091556040519081527f7f26b83ff96e1f2b6a682f133852f6798a09c465da95921460cefb38474024989060200160405180910390a15b565b608051613bfb6200012060003960008181610e6d01528181610ead0152818161126d015281816112ad015261136b0152613bfb6000f3fe60806040526004361061021a5760003560e01c80635a3bb98911610123578063a4c941be116100ab578063d7ae6d441161006f578063d7ae6d441461062c578063daea9def14610659578063e59e80181461066e578063f77c47911461068e578063f8c8765e146106ae57600080fd5b8063a4c941be14610591578063a6dd24b9146105b1578063b2016bd4146105cc578063bdab52e4146105ec578063cfc4af551461060c57600080fd5b80637c525488116100f25780637c5254881461051e5780638456cb5914610534578063893a95941461054957806390c66e5f14610565578063a4a1e2631461057b57600080fd5b80635a3bb989146104a55780635c975abb146104c65780635fd61965146104de57806378044844146104fe57600080fd5b806339aa77ea116101a657806345982a661161017557806345982a66146103b557806348dec2a7146103e25780634f1ef28614610445578063502c9bd51461045857806352d1902d1461049057600080fd5b806339aa77ea146103565780633f4ba83a1461036b5780633fcf685d14610380578063418e8d8e1461039557600080fd5b806318694fd4116101ed57806318694fd4146102b05780632472254b146102d25780632a129169146102f25780633659cfe614610309578063395815d31461032957600080fd5b80630710285c1461021f5780630c5bacdc146102545780630ed9ef7d1461027e5780630ee758d514610294575b600080fd5b34801561022b57600080fd5b5061023f61023a36600461322d565b6106ce565b60405190151581526020015b60405180910390f35b34801561026057600080fd5b5061027067120a871cc002000081565b60405190815260200161024b565b34801561028a57600080fd5b5061027060cb5481565b3480156102a057600080fd5b506102706710a741a46278000081565b3480156102bc57600080fd5b506102d06102cb366004613262565b610c35565b005b3480156102de57600080fd5b506102d06102ed366004613355565b610cf5565b3480156102fe57600080fd5b506102706201518081565b34801561031557600080fd5b506102d0610324366004613262565b610e63565b34801561033557600080fd5b5061027061034436600461340e565b60009081526097602052604090205490565b34801561036257600080fd5b506102d0610f42565b34801561037757600080fd5b506102d0611010565b34801561038c57600080fd5b506102d06110b7565b3480156103a157600080fd5b506102d06103b036600461340e565b6110da565b3480156103c157600080fd5b506103d56103d0366004613427565b611157565b60405161024b9190613449565b3480156103ee57600080fd5b506104256103fd366004613262565b61012d6020526000908152604090208054600182015460028301546003909301549192909184565b60408051948552602085019390935291830152606082015260800161024b565b6102d0610453366004613496565b611263565b34801561046457600080fd5b5061047861047336600461340e565b611333565b6040516001600160a01b03909116815260200161024b565b34801561049c57600080fd5b5061027061135e565b3480156104b157600080fd5b5061015f54610478906001600160a01b031681565b3480156104d257600080fd5b5060335460ff1661023f565b3480156104ea57600080fd5b506102d06104f9366004613262565b611411565b34801561050a57600080fd5b506102d061051936600461353e565b611608565b34801561052a57600080fd5b5061027060ca5481565b34801561054057600080fd5b506102d0611a5b565b34801561055557600080fd5b506102706702c68af0bb14000081565b34801561057157600080fd5b5061027060c95481565b34801561058757600080fd5b5061012e54610270565b34801561059d57600080fd5b506102d06105ac3660046135f8565b611b00565b3480156105bd57600080fd5b5061027066470de4df82000081565b3480156105d857600080fd5b5060cd54610478906001600160a01b031681565b3480156105f857600080fd5b50610270610607366004613262565b611d07565b34801561061857600080fd5b5060cc54610478906001600160a01b031681565b34801561063857600080fd5b5061064c610647366004613427565b611da1565b60405161024b9190613642565b34801561066557600080fd5b506102d0611f11565b34801561067a57600080fd5b5061023f610689366004613262565b611f21565b34801561069a57600080fd5b50606554610478906001600160a01b031681565b3480156106ba57600080fd5b506102d06106c93660046136a6565b611f3e565b606554604051632474521560e21b81527f5e17fc5225d4a099df75359ce1f405503ca79498a8dc46a7d583235a0ee45c1660048201523360248201526000916001600160a01b0316906391d1485490604401602060405180830381865afa15801561073d573d6000803e3d6000fd5b505050506040513d601f19601f8201168201806040525081019061076191906136f7565b61077d57604051629a0a3160e81b815260040160405180910390fd5b610785612019565b8361078e61205f565b6001600160a01b038116600090815261012d602052604090205480156108d0576001600160a01b038216600090815261012d602052604081206002015460c9546107d8919061372a565b90506000670de0b6b3a76400006107ef848461373d565b6107f99190613754565b905080156108c9576001600160a01b038416600090815261012d60205260409020600101548082111561085d576001600160a01b038516600090815261012d6020526040812060010155610855610850828461372a565b612181565b809150610885565b610867828261372a565b6001600160a01b038616600090815261012d60205260409020600101555b604080516001600160a01b0387168152602081018490527f33871441d31df70fc91c5e251fff57599904670ea5f6529912a192f3264a9f04910160405180910390a1505b5050610954565b6001600160a01b038216600090815261012d602052604081206003015490036109545761012e8054600181019091557fbdaadd9f750d0166045bf387a364eadd28ba243e04512a47282aa5147a68e37f0180546001600160a01b0319166001600160a01b038416908117909155600090815261012d60205260409020426003909101555b60c9546001600160a01b038316600090815261012d6020526040812060020191909155859003610997576040516320a49b3760e11b815260040160405180910390fd5b6001600160a01b038616600090815261012d602090815260409182902082516080810184528154815260018201549281018390526002820154938101939093526003015460608301528611156109ef57806020015195505b600080610a05836000015184602001518a6121a2565b90925090506000610a16828461372a565b9050670de0b6b3a7640000610a2b898b61373d565b610a359190613754565b811015610a64576040516366ccd49760e11b8152600481018a9052602481018290526044015b60405180910390fd5b8351610a7190849061372a565b6001600160a01b038b16600090815261012d6020908152604090912091909155840151610a9f908a9061372a565b6001600160a01b038b8116600090815261012d6020526040908190206001019290925560cc54915163079cc67960e41b8152336004820152602481018c90529116906379cc679090604401600060405180830381600087803b158015610b0457600080fd5b505af1158015610b18573d6000803e3d6000fd5b505060cd54610b3492506001600160a01b031690503383612283565b606554604051633963365d60e11b81527fd7c7bee50d78dd138aba81f39ab979d46f73829c0c3fbc67cc84bb5d4035ee336004820152610bd5916001600160a01b0316906372c66cba90602401602060405180830381865afa158015610b9e573d6000803e3d6000fd5b505050506040513d601f19601f82011682018060405250810190610bc29190613776565b60cd546001600160a01b03169084612283565b604080513381526001600160a01b038c166020820152908101849052606081018390527f175b0459512b85fa9bd3a33e6bfe9cf66447f5f375c2e57bcbe7df6829a703b59060800160405180910390a15060019998505050505050505050565b606554604051632474521560e21b8152600080516020613b3f83398151915260048201523360248201526001600160a01b03909116906391d1485490604401602060405180830381865afa158015610c91573d6000803e3d6000fd5b505050506040513d601f19601f82011682018060405250810190610cb591906136f7565b610cd257604051635f5f303560e11b815260040160405180910390fd5b61015f80546001600160a01b0319166001600160a01b0392909216919091179055565b606554604051632474521560e21b8152600080516020613b3f83398151915260048201523360248201526001600160a01b03909116906391d1485490604401602060405180830381865afa158015610d51573d6000803e3d6000fd5b505050506040513d601f19601f82011682018060405250810190610d7591906136f7565b610d9257604051635f5f303560e11b815260040160405180910390fd5b815181518114610db557604051633aea894360e01b815260040160405180910390fd5b60005b81811015610e5d576702c68af0bb140000838281518110610ddb57610ddb613793565b60200260200101511115610e0257604051631c408a4560e21b815260040160405180910390fd5b828181518110610e1457610e14613793565b602002602001015160976000868481518110610e3257610e32613793565b602002602001015181526020019081526020016000208190555080610e56906137a9565b9050610db8565b50505050565b6001600160a01b037f0000000000000000000000000000000000000000000000000000000000000000163003610eab5760405162461bcd60e51b8152600401610a5b906137c2565b7f00000000000000000000000000000000000000000000000000000000000000006001600160a01b0316610ef4600080516020613b5f833981519152546001600160a01b031690565b6001600160a01b031614610f1a5760405162461bcd60e51b8152600401610a5b9061380e565b610f23816122eb565b60408051600080825260208201909252610f3f9183919061237b565b50565b61015f60009054906101000a90046001600160a01b03166001600160a01b031663d294f0936040518163ffffffff1660e01b8152600401600060405180830381600087803b158015610f9357600080fd5b505af1158015610fa7573d6000803e3d6000fd5b5050505061015f60009054906101000a90046001600160a01b03166001600160a01b031663f69e20466040518163ffffffff1660e01b8152600401600060405180830381600087803b158015610ffc57600080fd5b505af1158015610e5d573d6000803e3d6000fd5b606554604051632474521560e21b8152600080516020613b3f83398151915260048201523360248201526001600160a01b03909116906391d1485490604401602060405180830381865afa15801561106c573d6000803e3d6000fd5b505050506040513d601f19601f8201168201806040525081019061109091906136f7565b6110ad57604051635f5f303560e11b815260040160405180910390fd5b6110b56124e6565b565b33600081815261012d6020526040812080546001909101546110b5939280612538565b6110e2612019565b60cc5460405163079cc67960e41b8152336004820152602481018390526001600160a01b03909116906379cc679090604401600060405180830381600087803b15801561112e57600080fd5b505af1158015611142573d6000803e3d6000fd5b5050505061114e61205f565b610f3f81612181565b606061116361012e5490565b82118061116f57508183115b1561118d57604051633aea894360e01b815260040160405180910390fd5b611197838361372a565b6111a290600161385a565b67ffffffffffffffff8111156111ba576111ba61327f565b6040519080825280602002602001820160405280156111e3578160200160208202803683370190505b509050825b8281101561125c5761012e818154811061120457611204613793565b6000918252602090912001546001600160a01b031682611224868461372a565b8151811061123457611234613793565b6001600160a01b0390921660209283029190910190910152611255816137a9565b90506111e8565b5092915050565b6001600160a01b037f00000000000000000000000000000000000000000000000000000000000000001630036112ab5760405162461bcd60e51b8152600401610a5b906137c2565b7f00000000000000000000000000000000000000000000000000000000000000006001600160a01b03166112f4600080516020613b5f833981519152546001600160a01b031690565b6001600160a01b03161461131a5760405162461bcd60e51b8152600401610a5b9061380e565b611323826122eb565b61132f8282600161237b565b5050565b61012e818154811061134457600080fd5b6000918252602090912001546001600160a01b0316905081565b6000306001600160a01b037f000000000000000000000000000000000000000000000000000000000000000016146113fe5760405162461bcd60e51b815260206004820152603860248201527f555550535570677261646561626c653a206d757374206e6f742062652063616c60448201527f6c6564207468726f7567682064656c656761746563616c6c00000000000000006064820152608401610a5b565b50600080516020613b5f83398151915290565b611419612019565b8061142261205f565b6001600160a01b038116600090815261012d6020526040902054801561155f576001600160a01b038216600090815261012d602052604081206002015460c95461146c919061372a565b90506000670de0b6b3a7640000611483848461373d565b61148d9190613754565b90508015611558576001600160a01b038416600090815261012d6020526040902060010154808211156114ec576001600160a01b038516600090815261012d60205260408120600101556114e4610850828461372a565b809150611514565b6114f6828261372a565b6001600160a01b038616600090815261012d60205260409020600101555b604080516001600160a01b0387168152602081018490527f33871441d31df70fc91c5e251fff57599904670ea5f6529912a192f3264a9f04910160405180910390a1505b50506115e3565b6001600160a01b038216600090815261012d602052604081206003015490036115e35761012e8054600181019091557fbdaadd9f750d0166045bf387a364eadd28ba243e04512a47282aa5147a68e37f0180546001600160a01b0319166001600160a01b038416908117909155600090815261012d60205260409020426003909101555b5060c9546001600160a01b03909116600090815261012d602052604090206002015550565b606554604051632474521560e21b81527ffc8737ab85eb45125971625a9ebdb75cc78e01d5c1fa80c4c6e5203f47bc4fab60048201523360248201526001600160a01b03909116906391d1485490604401602060405180830381865afa158015611676573d6000803e3d6000fd5b505050506040513d601f19601f8201168201806040525081019061169a91906136f7565b6116b757604051630aaab44b60e21b815260040160405180910390fd5b6116bf612019565b60cd546001600160a01b03908116908816036116ee576040516341f36fe160e11b815260040160405180910390fd5b8560000361170f57604051637685565760e01b815260040160405180910390fd5b606554604051630498867960e11b8152600481018690526000916001600160a01b0316906309310cf290602401602060405180830381865afa158015611759573d6000803e3d6000fd5b505050506040513d601f19601f8201168201806040525081019061177d9190613776565b90506001600160a01b0381166117a6576040516387f510cf60e01b815260040160405180910390fd5b7f080aef37141ee960ed8e58e9a5d83610936baf7fae602703545ee20d33bc4946600090815260976020527f4a83059b06102d33620ca9c186956528c9ca75d8c1ab0108d83db5f9d5d70e4454670de0b6b3a764000090611808908a9061373d565b6118129190613754565b90506000611820828a61372a565b90506118366001600160a01b038b168483612283565b60cc5460405163e354733560e01b81526000916001600160a01b038087169263e35473359261186d9216908a908a9060040161386d565b6020604051808303816000875af115801561188c573d6000803e3d6000fd5b505050506040513d601f19601f820116820180604052508101906118b091906138ad565b9050888110156118dd57604051631740345d60e21b815260048101829052602481018a9052604401610a5b565b60cc54604051630852cd8d60e31b8152600481018390526001600160a01b03909116906342966c6890602401600060405180830381600087803b15801561192357600080fd5b505af1158015611937573d6000803e3d6000fd5b5050505061194361205f565b611963670de0b6b3a7640000611959898461373d565b6108509190613754565b606554604051633963365d60e11b81527fd7c7bee50d78dd138aba81f39ab979d46f73829c0c3fbc67cc84bb5d4035ee336004820152611a02916001600160a01b0316906372c66cba90602401602060405180830381865afa1580156119cd573d6000803e3d6000fd5b505050506040513d601f19601f820116820180604052508101906119f19190613776565b6001600160a01b038d169085612283565b60408051848152602081018490529081018290526001600160a01b038c16907f5620e542b9ce6a03dbe5af2c6483e766af6c96439562b26a0dcd2edd7099524b9060600160405180910390a25050505050505050505050565b606554604051632474521560e21b8152600080516020613b3f83398151915260048201523360248201526001600160a01b03909116906391d1485490604401602060405180830381865afa158015611ab7573d6000803e3d6000fd5b505050506040513d601f19601f82011682018060405250810190611adb91906136f7565b611af857604051635f5f303560e11b815260040160405180910390fd5b6110b5612778565b611b08612019565b33611b1161205f565b6001600160a01b038116600090815261012d60205260409020548015611c4e576001600160a01b038216600090815261012d602052604081206002015460c954611b5b919061372a565b90506000670de0b6b3a7640000611b72848461373d565b611b7c9190613754565b90508015611c47576001600160a01b038416600090815261012d602052604090206001015480821115611bdb576001600160a01b038516600090815261012d6020526040812060010155611bd3610850828461372a565b809150611c03565b611be5828261372a565b6001600160a01b038616600090815261012d60205260409020600101555b604080516001600160a01b0387168152602081018490527f33871441d31df70fc91c5e251fff57599904670ea5f6529912a192f3264a9f04910160405180910390a1505b5050611cd2565b6001600160a01b038216600090815261012d60205260408120600301549003611cd25761012e8054600181019091557fbdaadd9f750d0166045bf387a364eadd28ba243e04512a47282aa5147a68e37f0180546001600160a01b0319166001600160a01b038416908117909155600090815261012d60205260409020426003909101555b60c9546001600160a01b038316600090815261012d6020526040902060020155611cff3387878787612538565b505050505050565b6000806000611d146127b5565b6001600160a01b038616600090815261012d6020908152604080832081516080810183528154808252600183015494820185905260028301549382019390935260039091015460608201529496509294509091611d729186866128fd565b90506000611d7f82612959565b9050611d96836000015184602001518787856129df565b979650505050505050565b6060611dad61012e5490565b821180611db957508183115b15611dd757604051633aea894360e01b815260040160405180910390fd5b611de1838361372a565b611dec90600161385a565b67ffffffffffffffff811115611e0457611e0461327f565b604051908082528060200260200182016040528015611e6057816020015b611e4d6040518060800160405280600081526020016000815260200160008152602001600081525090565b815260200190600190039081611e225790505b509050825b8281101561125c5761012d600061012e8381548110611e8657611e86613793565b60009182526020808320909101546001600160a01b03168352828101939093526040918201902081516080810183528154815260018201549381019390935260028101549183019190915260030154606082015282611ee5868461372a565b81518110611ef557611ef5613793565b602002602001018190525080611f0a906137a9565b9050611e65565b611f19612019565b6110b561205f565b600080611f2d83612a61565b6710a741a462780000109392505050565b600054610100900460ff1615808015611f5e5750600054600160ff909116105b80611f785750303b158015611f78575060005460ff166001145b611f945760405162461bcd60e51b8152600401610a5b906138c6565b6000805460ff191660011790558015611fb7576000805461ff0019166101001790555b611fc2858585612aa0565b61015f80546001600160a01b0319166001600160a01b0384161790558015612012576000805461ff001916905560405160018152600080516020613b7f8339815191529060200160405180910390a15b5050505050565b60335460ff16156110b55760405162461bcd60e51b815260206004820152601060248201526f14185d5cd8589b194e881c185d5cd95960821b6044820152606401610a5b565b60ca54156110b55760cd546040516370a0823160e01b81523060048201526000916001600160a01b0316906370a0823190602401602060405180830381865afa1580156120b0573d6000803e3d6000fd5b505050506040513d601f19601f820116820180604052508101906120d491906138ad565b90508015610f3f57600060cb54426120ec919061372a565b90506000620151808210612109575060ca8054600090915561213f565b6201518060ca548361211b919061373d565b6121259190613754565b90508060ca6000828254612139919061372a565b90915550505b600083612154670de0b6b3a76400008461373d565b61215e9190613754565b90508060c96000828254612172919061385a565b90915550504260cb5550505050565b4260cb819055508060ca600082825461219a919061385a565b909155505050565b6000806000806121b06127b5565b9150915060006121c2888885856128fd565b905060006121cf82612959565b90506000846121df85600a6139f8565b6121e9908a61373d565b6121f39190613754565b9050670de0b6b3a7640000612208838361373d565b6122129190613754565b965089871115612220578996505b61222d8a8a8787866129df565b88111561224d576040516320a49b3760e11b815260040160405180910390fd5b86670de0b6b3a764000061226866470de4df8200008461373d565b6122729190613754565b965096505050505050935093915050565b6040516001600160a01b0383166024820152604481018290526122e690849063a9059cbb60e01b906064015b60408051601f198184030181529190526020810180516001600160e01b03166001600160e01b031990931692909217909152612b65565b505050565b606554604051632474521560e21b8152600060048201523360248201526001600160a01b03909116906391d1485490604401602060405180830381865afa15801561233a573d6000803e3d6000fd5b505050506040513d601f19601f8201168201806040525081019061235e91906136f7565b610f3f57604051630e5b7f6b60e41b815260040160405180910390fd5b7f4910fdfa16fed3260ed0e7147f7cc6da11a60208b5b9406d12a635614ffd91435460ff16156123ae576122e683612c37565b826001600160a01b03166352d1902d6040518163ffffffff1660e01b8152600401602060405180830381865afa925050508015612408575060408051601f3d908101601f19168201909252612405918101906138ad565b60015b61246b5760405162461bcd60e51b815260206004820152602e60248201527f45524331393637557067726164653a206e657720696d706c656d656e7461746960448201526d6f6e206973206e6f74205555505360901b6064820152608401610a5b565b600080516020613b5f83398151915281146124da5760405162461bcd60e51b815260206004820152602960248201527f45524331393637557067726164653a20756e737570706f727465642070726f786044820152681a58589b195555525160ba1b6064820152608401610a5b565b506122e6838383612cd3565b6124ee612cf8565b6033805460ff191690557f5db9ee0a495bf2e6ff9c91a7834c1ba4fdd244a5e8aa4e537bd38aeae4b073aa335b6040516001600160a01b03909116815260200160405180910390a1565b6000831561269a5781156125e6576001600160a01b038616600090815261012d60205260408120600101805486929061257290849061385a565b909155505060cc546040516340c10f1960e01b81526001600160a01b0388811660048301526024820187905260019350909116906340c10f1990604401600060405180830381600087803b1580156125c957600080fd5b505af11580156125dd573d6000803e3d6000fd5b5050505061269a565b6001600160a01b038616600090815261012d60205260409020600101548085111561260f578094505b612619858261372a565b6001600160a01b03888116600081815261012d6020526040908190206001019390935560cc54925163079cc67960e41b81526004810191909152602481018890529116906379cc679090604401600060405180830381600087803b15801561268057600080fd5b505af1158015612694573d6000803e3d6000fd5b50505050505b84156127695782156126f1576001600160a01b038616600090815261012d6020526040812080548792906126cf90849061385a565b909155505060cd546126ec906001600160a01b0316333088612d41565b612769565b6001600160a01b038616600090815261012d60205260409020548086111561272c57604051631c85505560e31b815260040160405180910390fd5b612736868261372a565b6001600160a01b03808916600090815261012d602052604090209190915560cd546001935061276791163388612283565b505b8015611cff57611cff86612d79565b612780612019565b6033805460ff191660011790557f62e78cea01bee320cd4e420270b5ea74000d11b0c9f74754ebdbfc544b05a25861251b3390565b606554604051633963365d60e11b81527fa0bd9cb97cb722facbee4e2138145207a65719dc63c9a262f96ec8db1eadc3e86004820152600091829182916001600160a01b0316906372c66cba90602401602060405180830381865afa158015612822573d6000803e3d6000fd5b505050506040513d601f19601f820116820180604052508101906128469190613776565b60cd546040805160006020820152815160018183030181526021820192839052635c2761e760e11b9092526001600160a01b039384169363b84ec3ce9361289293911691602501613a57565b606060405180830381865afa1580156128af573d6000803e3d6000fd5b505050506040513d601f19601f820116820180604052508101906128d39190613a7b565b91945092509050806128f857604051630abafaf360e41b815260040160405180910390fd5b509091565b6000831561294c57600061291283600a6139f8565b61291c908661373d565b670de0b6b3a764000061292f868961373d565b612939919061373d565b6129439190613754565b91506129519050565b506000195b949350505050565b60006710a741a462780000821061298357604051631b72906960e11b815260040160405180910390fd5b60008261299f66470de4df8200006710a741a46278000061385a565b6129a9919061372a565b90506702c68af0bb1400008111156129c657506702c68af0bb1400005b6129d881670de0b6b3a764000061385a565b9392505050565b60006129f38267120a871cc002000061372a565b6129fe84600a6139f8565b670de0b6b3a7640000612a11878a61373d565b612a1b919061373d565b612a259190613754565b612a378767120a871cc002000061373d565b612a41919061372a565b612a4b9190613754565b905084811115612a585750835b95945050505050565b6000806000612a6e6127b5565b6001600160a01b038616600090815261012d6020526040902080546001909101549294509092506129519184846128fd565b600054610100900460ff1615808015612ac05750600054600160ff909116105b80612ada5750303b158015612ada575060005460ff166001145b612af65760405162461bcd60e51b8152600401610a5b906138c6565b6000805460ff191660011790558015612b19576000805461ff0019166101001790555b612b2284612d9f565b612b2c8383612e6a565b8015610e5d576000805461ff001916905560405160018152600080516020613b7f8339815191529060200160405180910390a150505050565b6000612bba826040518060400160405280602081526020017f5361666545524332303a206c6f772d6c6576656c2063616c6c206661696c6564815250856001600160a01b0316612f539092919063ffffffff16565b8051909150156122e65780806020019051810190612bd891906136f7565b6122e65760405162461bcd60e51b815260206004820152602a60248201527f5361666545524332303a204552433230206f7065726174696f6e20646964206e6044820152691bdd081cdd58d8d9595960b21b6064820152608401610a5b565b6001600160a01b0381163b612ca45760405162461bcd60e51b815260206004820152602d60248201527f455243313936373a206e657720696d706c656d656e746174696f6e206973206e60448201526c1bdd08184818dbdb9d1c9858dd609a1b6064820152608401610a5b565b600080516020613b5f83398151915280546001600160a01b0319166001600160a01b0392909216919091179055565b612cdc83612f62565b600082511180612ce95750805b156122e657610e5d8383612fa2565b60335460ff166110b55760405162461bcd60e51b815260206004820152601460248201527314185d5cd8589b194e881b9bdd081c185d5cd95960621b6044820152606401610a5b565b6040516001600160a01b0380851660248301528316604482015260648101829052610e5d9085906323b872dd60e01b906084016122af565b612d8281611f21565b610f3f57604051631c85505560e31b815260040160405180910390fd5b600054610100900460ff1615808015612dbf5750600054600160ff909116105b80612dd95750303b158015612dd9575060005460ff166001145b612df55760405162461bcd60e51b8152600401610a5b906138c6565b6000805460ff191660011790558015612e18576000805461ff0019166101001790555b606580546001600160a01b0319166001600160a01b038416179055801561132f576000805461ff001916905560405160018152600080516020613b7f8339815191529060200160405180910390a15050565b600054610100900460ff1615808015612e8a5750600054600160ff909116105b80612ea45750303b158015612ea4575060005460ff166001145b612ec05760405162461bcd60e51b8152600401610a5b906138c6565b6000805460ff191660011790558015612ee3576000805461ff0019166101001790555b612eeb612fd0565b60cc80546001600160a01b038086166001600160a01b03199283161790925560cd80549285169290911691909117905580156122e6576000805461ff001916905560405160018152600080516020613b7f8339815191529060200160405180910390a1505050565b60606129518484600085612fff565b612f6b81612c37565b6040516001600160a01b038216907fbc7cd75a20ee27fd9adebab32041f755214dbc6bffa90cc0225b39da2e5c2d3b90600090a250565b6060612fc78383604051806060016040528060278152602001613b9f602791396130cf565b90505b92915050565b600054610100900460ff16612ff75760405162461bcd60e51b8152600401610a5b90613ac4565b6110b5613147565b6060824710156130605760405162461bcd60e51b815260206004820152602660248201527f416464726573733a20696e73756666696369656e742062616c616e636520666f6044820152651c8818d85b1b60d21b6064820152608401610a5b565b600080866001600160a01b0316858760405161307c9190613b0f565b60006040518083038185875af1925050503d80600081146130b9576040519150601f19603f3d011682016040523d82523d6000602084013e6130be565b606091505b5091509150611d968783838761317a565b6060600080856001600160a01b0316856040516130ec9190613b0f565b600060405180830381855af49150503d8060008114613127576040519150601f19603f3d011682016040523d82523d6000602084013e61312c565b606091505b509150915061313d8683838761317a565b9695505050505050565b600054610100900460ff1661316e5760405162461bcd60e51b8152600401610a5b90613ac4565b6033805460ff19169055565b606083156131e95782516000036131e2576001600160a01b0385163b6131e25760405162461bcd60e51b815260206004820152601d60248201527f416464726573733a2063616c6c20746f206e6f6e2d636f6e74726163740000006044820152606401610a5b565b5081612951565b61295183838151156131fe5781518083602001fd5b8060405162461bcd60e51b8152600401610a5b9190613b2b565b6001600160a01b0381168114610f3f57600080fd5b60008060006060848603121561324257600080fd5b833561324d81613218565b95602085013595506040909401359392505050565b60006020828403121561327457600080fd5b81356129d881613218565b634e487b7160e01b600052604160045260246000fd5b604051601f8201601f1916810167ffffffffffffffff811182821017156132be576132be61327f565b604052919050565b600067ffffffffffffffff8211156132e0576132e061327f565b5060051b60200190565b600082601f8301126132fb57600080fd5b8135602061331061330b836132c6565b613295565b82815260059290921b8401810191818101908684111561332f57600080fd5b8286015b8481101561334a5780358352918301918301613333565b509695505050505050565b6000806040838503121561336857600080fd5b823567ffffffffffffffff8082111561338057600080fd5b818501915085601f83011261339457600080fd5b813560206133a461330b836132c6565b82815260059290921b840181019181810190898411156133c357600080fd5b948201945b838610156133e1578535825294820194908201906133c8565b965050860135925050808211156133f757600080fd5b50613404858286016132ea565b9150509250929050565b60006020828403121561342057600080fd5b5035919050565b6000806040838503121561343a57600080fd5b50508035926020909101359150565b6020808252825182820181905260009190848201906040850190845b8181101561348a5783516001600160a01b031683529284019291840191600101613465565b50909695505050505050565b600080604083850312156134a957600080fd5b82356134b481613218565b915060208381013567ffffffffffffffff808211156134d257600080fd5b818601915086601f8301126134e657600080fd5b8135818111156134f8576134f861327f565b61350a601f8201601f19168501613295565b9150808252878482850101111561352057600080fd5b80848401858401376000848284010152508093505050509250929050565b600080600080600080600060c0888a03121561355957600080fd5b873561356481613218565b96506020880135955060408801359450606088013593506080880135925060a088013567ffffffffffffffff8082111561359d57600080fd5b818a0191508a601f8301126135b157600080fd5b8135818111156135c057600080fd5b8b60208285010111156135d257600080fd5b60208301945080935050505092959891949750929550565b8015158114610f3f57600080fd5b6000806000806080858703121561360e57600080fd5b84359350602085013592506040850135613627816135ea565b91506060850135613637816135ea565b939692955090935050565b602080825282518282018190526000919060409081850190868401855b828110156136995781518051855286810151878601528581015186860152606090810151908501526080909301929085019060010161365f565b5091979650505050505050565b600080600080608085870312156136bc57600080fd5b84356136c781613218565b935060208501356136d781613218565b925060408501356136e781613218565b9150606085013561363781613218565b60006020828403121561370957600080fd5b81516129d8816135ea565b634e487b7160e01b600052601160045260246000fd5b81810381811115612fca57612fca613714565b8082028115828204841417612fca57612fca613714565b60008261377157634e487b7160e01b600052601260045260246000fd5b500490565b60006020828403121561378857600080fd5b81516129d881613218565b634e487b7160e01b600052603260045260246000fd5b6000600182016137bb576137bb613714565b5060010190565b6020808252602c908201527f46756e6374696f6e206d7573742062652063616c6c6564207468726f7567682060408201526b19195b1959d85d1958d85b1b60a21b606082015260800190565b6020808252602c908201527f46756e6374696f6e206d7573742062652063616c6c6564207468726f7567682060408201526b6163746976652070726f787960a01b606082015260800190565b80820180821115612fca57612fca613714565b6001600160a01b03841681526040602082018190528101829052818360608301376000818301606090810191909152601f909201601f1916010192915050565b6000602082840312156138bf57600080fd5b5051919050565b6020808252602e908201527f496e697469616c697a61626c653a20636f6e747261637420697320616c72656160408201526d191e481a5b9a5d1a585b1a5e995960921b606082015260800190565b600181815b8085111561394f57816000190482111561393557613935613714565b8085161561394257918102915b93841c9390800290613919565b509250929050565b60008261396657506001612fca565b8161397357506000612fca565b81600181146139895760028114613993576139af565b6001915050612fca565b60ff8411156139a4576139a4613714565b50506001821b612fca565b5060208310610133831016604e8410600b84101617156139d2575081810a612fca565b6139dc8383613914565b80600019048211156139f0576139f0613714565b029392505050565b6000612fc760ff841683613957565b60005b83811015613a22578181015183820152602001613a0a565b50506000910152565b60008151808452613a43816020860160208601613a07565b601f01601f19169290920160200192915050565b6001600160a01b038316815260406020820181905260009061295190830184613a2b565b600080600060608486031215613a9057600080fd5b83519250602084015160ff81168114613aa857600080fd5b6040850151909250613ab9816135ea565b809150509250925092565b6020808252602b908201527f496e697469616c697a61626c653a20636f6e7472616374206973206e6f74206960408201526a6e697469616c697a696e6760a81b606082015260800190565b60008251613b21818460208701613a07565b9190910192915050565b602081526000612fc76020830184613a2b56fea5a0b70b385ff7611cd3840916bd08b10829e5bf9e6637cf79dd9a427fc0e2ab360894a13ba1a3210667c828492db98dca3e2076cc3735a920a3ca505d382bbc7f26b83ff96e1f2b6a682f133852f6798a09c465da95921460cefb3847402498416464726573733a206c6f772d6c6576656c2064656c65676174652063616c6c206661696c6564a2646970667358221220cbbd618fbfe3533feff41852ee6d44f2931610276d968e0ffea08bb91281475a64736f6c63430008110033",
  "devdoc": {
    "kind": "dev",
    "methods": {
      "addFeePerc(bytes32[],uint256[])": {
        "details": "add the fee types being used by the vault note if we want to delete the mapping, pass _feeType with empty array"
      },
      "collectYield()": {
        "details": "function to collect yield from Gmx. Callable by anyone since we have sandwich attack protections in place. Note that we do not vest any esGmx tokens. They are simply staked immediately. Long-term this will lead to greater protocol yield."
      },
      "constructor": {
        "custom:oz-upgrades-unsafe-allow": "constructor"
      },
      "distributeTauRewards(uint256)": {
        "details": "function to deposit TAU into the contract while averting sandwich attacks.",
        "params": {
          "amount": "is the amount of TAU to be burned and used to cancel out debt. note the main source of TAU is the SwapHandler. This function is just a safeguard in case some other source of TAU arises."
        }
      },
      "emergencyClosePosition()": {
        "details": "Function allowing a user to automatically close their position. Note that this function is available even when the contract is paused. Note that since this function does not call updateReward, it should only be used when the contract is paused."
      },
      "getAccountHealth(address)": {
        "details": "In this function, we assume that TAU is worth $1 exactly. This allows users to arbitrage the difference, if any."
      },
      "getMaxLiquidation(address)": {
        "details": "calculate the max amount of debt that can be liquidated from an account",
        "params": {
          "_account": "is the address of the account to be liquidated"
        },
        "returns": {
          "maxRepay": "is the maximum amount of debt that can be liquidated from the account"
        }
      },
      "getUsers(uint256,uint256)": {
        "details": "Get the user addresses in the range given start and end index note the start and end index are inclusive"
      },
      "getUsersCount()": {
        "details": "Get the number of users"
      },
      "getUsersDetailsInRange(uint256,uint256)": {
        "details": "Get the user details in the range given start and end index. note the start and end index are inclusive"
      },
      "liquidate(address,uint256,uint256)": {
        "params": {
          "_account": "is the account to be liquidated. It must be unhealthy.",
          "_debtAmount": "is the amount of debt to be repaid. It must be greater than 0. If the entire account is liquidateable, an arbitrarily high debt amount will signal that the entire account should be liquidated. Otherwise, _debtAmount must be less than or equal to the max debt which can be liquidated from the acount.",
          "_minExchangeRate": "represents the minimum number of collateral tokens which the liquidator is willing to receive in exchange for  1 debt token. A value of PRECISION will mean that the liquidation will revert unless the liquidator receives at least 1 collateral per debt token repaid. A value of 0 means that slippage is not checked, and the liquidator will accept whatever the exchange rate happens to be."
        },
        "returns": {
          "_0": "true if the liquidation was successful"
        }
      },
      "paused()": {
        "details": "Returns true if the contract is paused, and false otherwise."
      },
      "proxiableUUID()": {
        "details": "Implementation of the ERC1822 {proxiableUUID} function. This returns the storage slot used by the implementation. It is used to validate the implementation's compatibility when performing an upgrade. IMPORTANT: A proxy pointing at a proxiable contract should not be considered proxiable itself, because this risks bricking a proxy that upgrades to it, by delegating to itself until out of gas. Thus it is critical that this function revert if invoked through a proxy. This is guaranteed by the `notDelegated` modifier."
      },
      "swapForTau(address,uint256,uint256,bytes32,uint256,bytes)": {
        "details": "function called as part of the yield pull process. This will fetch swap modules from the Controller, use them  to handle a swap from vault yield to tau, then validate that the swap did not encounter too much slippage.",
        "params": {
          "_rewardProportion": "refers to the proportion of received tau which will be rewarded (i.e. pay back user loans). The remainder will simply be burned without being distributed to users. This undistributed tau cancels out bad debt in the vault. All vaults retain a growing reserve of yield to ensure bad debt will always be covered. _rewardProportion has a precision of 1e18. If _rewardProportion = 1e18, all tau will be disbursed to users. If _rewardProportion = 0, none of the burned tau will be disbursed.",
          "_swapAdapterHash": "is the hash of the swap adapter to be used, i.e. keccak256(\"UniswapSwapAdapter\") for the UniswapSwapAdapter.",
          "_swapParams": "is the params to be passed to the SwapAdapter. note that this function may only be called by a registered keeper.",
          "_yieldTokenAddress": "is the address of the token to be swapped. Must be a yield token, so cannot be the vault's collateral token or tau.",
          "_yieldTokenAmount": "is the amount of yield token. Some will be transferred to the FeeSplitter for use by the protocol. The rest will be swapped for tau. note that slippage parameters must be built based on the amount to be swapped, not based on _yieldTokenAmount above (some of which will not be swapped)."
        }
      },
      "updateRewards(address)": {
        "details": "Updates a user's rewards. Callable by anyone, but really only useful for keepers  to update inactive accounts (thus redistributing their excess rewards to the vault).",
        "params": {
          "_account": "is the account whose rewards will be updated"
        }
      },
      "upgradeTo(address)": {
        "details": "Upgrade the implementation of the proxy to `newImplementation`. Calls {_authorizeUpgrade}. Emits an {Upgraded} event."
      },
      "upgradeToAndCall(address,bytes)": {
        "details": "Upgrade the implementation of the proxy to `newImplementation`, and subsequently execute the function call encoded in `data`. Calls {_authorizeUpgrade}. Emits an {Upgraded} event."
      }
    },
    "version": 1
  },
  "userdoc": {
    "errors": {
      "insufficientCollateral()": [
        {
          "notice": "Define the errors"
        }
      ]
    },
    "kind": "user",
    "methods": {},
    "version": 1
  },
  "storageLayout": {
    "storage": [
      {
        "astId": 6,
        "contract": "contracts/Vault/YieldAdapters/GMX/GmxYieldAdapter.sol:GmxYieldAdapter",
        "label": "_initialized",
        "offset": 0,
        "slot": "0",
        "type": "t_uint8"
      },
      {
        "astId": 9,
        "contract": "contracts/Vault/YieldAdapters/GMX/GmxYieldAdapter.sol:GmxYieldAdapter",
        "label": "_initializing",
        "offset": 1,
        "slot": "0",
        "type": "t_bool"
      },
      {
        "astId": 620,
        "contract": "contracts/Vault/YieldAdapters/GMX/GmxYieldAdapter.sol:GmxYieldAdapter",
        "label": "__gap",
        "offset": 0,
        "slot": "1",
        "type": "t_array(t_uint256)50_storage"
      },
      {
        "astId": 189,
        "contract": "contracts/Vault/YieldAdapters/GMX/GmxYieldAdapter.sol:GmxYieldAdapter",
        "label": "_paused",
        "offset": 0,
        "slot": "51",
        "type": "t_bool"
      },
      {
        "astId": 294,
        "contract": "contracts/Vault/YieldAdapters/GMX/GmxYieldAdapter.sol:GmxYieldAdapter",
        "label": "__gap",
        "offset": 0,
        "slot": "52",
        "type": "t_array(t_uint256)49_storage"
      },
      {
        "astId": 7321,
        "contract": "contracts/Vault/YieldAdapters/GMX/GmxYieldAdapter.sol:GmxYieldAdapter",
        "label": "controller",
        "offset": 0,
        "slot": "101",
        "type": "t_address"
      },
      {
        "astId": 7413,
        "contract": "contracts/Vault/YieldAdapters/GMX/GmxYieldAdapter.sol:GmxYieldAdapter",
        "label": "__gap",
        "offset": 0,
        "slot": "102",
        "type": "t_array(t_uint256)49_storage"
      },
      {
        "astId": 10794,
        "contract": "contracts/Vault/YieldAdapters/GMX/GmxYieldAdapter.sol:GmxYieldAdapter",
        "label": "feeMapping",
        "offset": 0,
        "slot": "151",
        "type": "t_mapping(t_bytes32,t_uint256)"
      },
      {
        "astId": 10868,
        "contract": "contracts/Vault/YieldAdapters/GMX/GmxYieldAdapter.sol:GmxYieldAdapter",
        "label": "__gap",
        "offset": 0,
        "slot": "152",
        "type": "t_array(t_uint256)49_storage"
      },
      {
        "astId": 11093,
        "contract": "contracts/Vault/YieldAdapters/GMX/GmxYieldAdapter.sol:GmxYieldAdapter",
        "label": "cumulativeTauRewardPerCollateral",
        "offset": 0,
        "slot": "201",
        "type": "t_uint256"
      },
      {
        "astId": 11096,
        "contract": "contracts/Vault/YieldAdapters/GMX/GmxYieldAdapter.sol:GmxYieldAdapter",
        "label": "tauWithheld",
        "offset": 0,
        "slot": "202",
        "type": "t_uint256"
      },
      {
        "astId": 11099,
        "contract": "contracts/Vault/YieldAdapters/GMX/GmxYieldAdapter.sol:GmxYieldAdapter",
        "label": "tokensLastDisbursedTimestamp",
        "offset": 0,
        "slot": "203",
        "type": "t_uint256"
      },
      {
        "astId": 11106,
        "contract": "contracts/Vault/YieldAdapters/GMX/GmxYieldAdapter.sol:GmxYieldAdapter",
        "label": "tau",
        "offset": 0,
        "slot": "204",
        "type": "t_address"
      },
      {
        "astId": 11109,
        "contract": "contracts/Vault/YieldAdapters/GMX/GmxYieldAdapter.sol:GmxYieldAdapter",
        "label": "collateralToken",
        "offset": 0,
        "slot": "205",
        "type": "t_address"
      },
      {
        "astId": 11285,
        "contract": "contracts/Vault/YieldAdapters/GMX/GmxYieldAdapter.sol:GmxYieldAdapter",
        "label": "__gap",
        "offset": 0,
        "slot": "206",
        "type": "t_array(t_uint256)45_storage"
      },
      {
        "astId": 11074,
        "contract": "contracts/Vault/YieldAdapters/GMX/GmxYieldAdapter.sol:GmxYieldAdapter",
        "label": "__gap",
        "offset": 0,
        "slot": "251",
        "type": "t_array(t_uint256)50_storage"
      },
      {
        "astId": 9773,
        "contract": "contracts/Vault/YieldAdapters/GMX/GmxYieldAdapter.sol:GmxYieldAdapter",
        "label": "userDetails",
        "offset": 0,
        "slot": "301",
        "type": "t_mapping(t_address,t_struct(UserDetails)9767_storage)"
      },
      {
        "astId": 9777,
        "contract": "contracts/Vault/YieldAdapters/GMX/GmxYieldAdapter.sol:GmxYieldAdapter",
        "label": "userAddresses",
        "offset": 0,
        "slot": "302",
        "type": "t_array(t_address)dyn_storage"
      },
      {
        "astId": 10776,
        "contract": "contracts/Vault/YieldAdapters/GMX/GmxYieldAdapter.sol:GmxYieldAdapter",
        "label": "__gap",
        "offset": 0,
        "slot": "303",
        "type": "t_array(t_uint256)48_storage"
      },
      {
        "astId": 11296,
        "contract": "contracts/Vault/YieldAdapters/GMX/GmxYieldAdapter.sol:GmxYieldAdapter",
        "label": "rewardRouter",
        "offset": 0,
        "slot": "351",
        "type": "t_address"
      },
      {
        "astId": 11361,
        "contract": "contracts/Vault/YieldAdapters/GMX/GmxYieldAdapter.sol:GmxYieldAdapter",
        "label": "__gap",
        "offset": 0,
        "slot": "352",
        "type": "t_array(t_uint256)49_storage"
      }
    ],
    "types": {
      "t_address": {
        "encoding": "inplace",
        "label": "address",
        "numberOfBytes": "20"
      },
      "t_array(t_address)dyn_storage": {
        "base": "t_address",
        "encoding": "dynamic_array",
        "label": "address[]",
        "numberOfBytes": "32"
      },
      "t_array(t_uint256)45_storage": {
        "base": "t_uint256",
        "encoding": "inplace",
        "label": "uint256[45]",
        "numberOfBytes": "1440"
      },
      "t_array(t_uint256)48_storage": {
        "base": "t_uint256",
        "encoding": "inplace",
        "label": "uint256[48]",
        "numberOfBytes": "1536"
      },
      "t_array(t_uint256)49_storage": {
        "base": "t_uint256",
        "encoding": "inplace",
        "label": "uint256[49]",
        "numberOfBytes": "1568"
      },
      "t_array(t_uint256)50_storage": {
        "base": "t_uint256",
        "encoding": "inplace",
        "label": "uint256[50]",
        "numberOfBytes": "1600"
      },
      "t_bool": {
        "encoding": "inplace",
        "label": "bool",
        "numberOfBytes": "1"
      },
      "t_bytes32": {
        "encoding": "inplace",
        "label": "bytes32",
        "numberOfBytes": "32"
      },
      "t_mapping(t_address,t_struct(UserDetails)9767_storage)": {
        "encoding": "mapping",
        "key": "t_address",
        "label": "mapping(address => struct BaseVault.UserDetails)",
        "numberOfBytes": "32",
        "value": "t_struct(UserDetails)9767_storage"
      },
      "t_mapping(t_bytes32,t_uint256)": {
        "encoding": "mapping",
        "key": "t_bytes32",
        "label": "mapping(bytes32 => uint256)",
        "numberOfBytes": "32",
        "value": "t_uint256"
      },
      "t_struct(UserDetails)9767_storage": {
        "encoding": "inplace",
        "label": "struct BaseVault.UserDetails",
        "members": [
          {
            "astId": 9760,
            "contract": "contracts/Vault/YieldAdapters/GMX/GmxYieldAdapter.sol:GmxYieldAdapter",
            "label": "collateral",
            "offset": 0,
            "slot": "0",
            "type": "t_uint256"
          },
          {
            "astId": 9762,
            "contract": "contracts/Vault/YieldAdapters/GMX/GmxYieldAdapter.sol:GmxYieldAdapter",
            "label": "debt",
            "offset": 0,
            "slot": "1",
            "type": "t_uint256"
          },
          {
            "astId": 9764,
            "contract": "contracts/Vault/YieldAdapters/GMX/GmxYieldAdapter.sol:GmxYieldAdapter",
            "label": "lastUpdatedRewardPerCollateral",
            "offset": 0,
            "slot": "2",
            "type": "t_uint256"
          },
          {
            "astId": 9766,
            "contract": "contracts/Vault/YieldAdapters/GMX/GmxYieldAdapter.sol:GmxYieldAdapter",
            "label": "startTimestamp",
            "offset": 0,
            "slot": "3",
            "type": "t_uint256"
          }
        ],
        "numberOfBytes": "128"
      },
      "t_uint256": {
        "encoding": "inplace",
        "label": "uint256",
        "numberOfBytes": "32"
      },
      "t_uint8": {
        "encoding": "inplace",
        "label": "uint8",
        "numberOfBytes": "1"
      }
    }
  }
}