{
  "address": "0x46B30C9056D2fb401471AC003d74605c63425905",
  "abi": [
    {
      "inputs": [
        {
          "internalType": "address",
          "name": "_tau",
          "type": "address"
        },
        {
          "internalType": "address",
          "name": "_controller",
          "type": "address"
        },
        {
          "internalType": "uint256",
          "name": "_offset",
          "type": "uint256"
        }
      ],
      "stateMutability": "nonpayable",
      "type": "constructor"
    },
    {
      "inputs": [],
      "name": "insufficientFunds",
      "type": "error"
    },
    {
      "inputs": [],
      "name": "notKeeper",
      "type": "error"
    },
    {
      "inputs": [],
      "name": "notMultisig",
      "type": "error"
    },
    {
      "inputs": [],
      "name": "oracleCorrupt",
      "type": "error"
    },
    {
      "inputs": [
        {
          "internalType": "uint256",
          "name": "",
          "type": "uint256"
        }
      ],
      "name": "wrongOffset",
      "type": "error"
    },
    {
      "anonymous": false,
      "inputs": [
        {
          "indexed": true,
          "internalType": "address",
          "name": "userAddress",
          "type": "address"
        },
        {
          "indexed": false,
          "internalType": "uint256",
          "name": "amount",
          "type": "uint256"
        }
      ],
      "name": "CollateralWithdrawn",
      "type": "event"
    },
    {
      "inputs": [],
      "name": "OFFSET_LIMIT",
      "outputs": [
        {
          "internalType": "uint256",
          "name": "",
          "type": "uint256"
        }
      ],
      "stateMutability": "view",
      "type": "function"
    },
    {
      "inputs": [],
      "name": "OFFSET_PRECISION",
      "outputs": [
        {
          "internalType": "uint256",
          "name": "",
          "type": "uint256"
        }
      ],
      "stateMutability": "view",
      "type": "function"
    },
    {
      "inputs": [
        {
          "internalType": "address",
          "name": "_tokenIn",
          "type": "address"
        },
        {
          "internalType": "address",
          "name": "_vault",
          "type": "address"
        }
      ],
      "name": "approveTokens",
      "outputs": [],
      "stateMutability": "nonpayable",
      "type": "function"
    },
    {
      "inputs": [],
      "name": "controller",
      "outputs": [
        {
          "internalType": "address",
          "name": "",
          "type": "address"
        }
      ],
      "stateMutability": "view",
      "type": "function"
    },
    {
      "inputs": [
        {
          "internalType": "uint256",
          "name": "_startIndex",
          "type": "uint256"
        },
        {
          "internalType": "address",
          "name": "_vaultAddress",
          "type": "address"
        }
      ],
      "name": "fetchUnhealthyAccounts",
      "outputs": [
        {
          "internalType": "address[]",
          "name": "unhealthyAccounts",
          "type": "address[]"
        }
      ],
      "stateMutability": "view",
      "type": "function"
    },
    {
      "inputs": [
        {
          "components": [
            {
              "internalType": "address",
              "name": "vaultAddress",
              "type": "address"
            },
            {
              "internalType": "address",
              "name": "accountAddr",
              "type": "address"
            },
            {
              "internalType": "uint256",
              "name": "amount",
              "type": "uint256"
            },
            {
              "internalType": "bool",
              "name": "offset",
              "type": "bool"
            }
          ],
          "internalType": "struct LiquidationBot.LiqParams",
          "name": "_liqParams",
          "type": "tuple"
        }
      ],
      "name": "liquidate",
      "outputs": [
        {
          "internalType": "bool",
          "name": "",
          "type": "bool"
        }
      ],
      "stateMutability": "nonpayable",
      "type": "function"
    },
    {
      "inputs": [],
      "name": "offset",
      "outputs": [
        {
          "internalType": "uint256",
          "name": "",
          "type": "uint256"
        }
      ],
      "stateMutability": "view",
      "type": "function"
    },
    {
      "inputs": [],
      "name": "percOffset",
      "outputs": [
        {
          "internalType": "uint256",
          "name": "",
          "type": "uint256"
        }
      ],
      "stateMutability": "view",
      "type": "function"
    },
    {
      "inputs": [
        {
          "internalType": "uint256",
          "name": "_percOff",
          "type": "uint256"
        }
      ],
      "name": "setOffsetPercentage",
      "outputs": [],
      "stateMutability": "nonpayable",
      "type": "function"
    },
    {
      "inputs": [
        {
          "internalType": "uint256",
          "name": "_offset",
          "type": "uint256"
        }
      ],
      "name": "setParams",
      "outputs": [],
      "stateMutability": "nonpayable",
      "type": "function"
    },
    {
      "inputs": [],
      "name": "tau",
      "outputs": [
        {
          "internalType": "contract IERC20",
          "name": "",
          "type": "address"
        }
      ],
      "stateMutability": "view",
      "type": "function"
    },
    {
      "inputs": [
        {
          "internalType": "address",
          "name": "_token",
          "type": "address"
        },
        {
          "internalType": "uint256",
          "name": "_amount",
          "type": "uint256"
        }
      ],
      "name": "withdrawLiqRewards",
      "outputs": [],
      "stateMutability": "nonpayable",
      "type": "function"
    }
  ],
  "transactionHash": "0xd6bd2259bac88e31f20b9a06f3f1cf96938a6021188996709caaba0396a46476",
  "args": [
    "0x069142e8BAe358FBD213B0d580e559f000eD33c6",
    "0x3BcDeF1b7c162B36853945aea9AFE52570bc06ac",
    "10"
  ],
  "numDeployments": 1,
  "solcInputHash": "905c5c68041e852c361757098a1bcca2",
  "bytecode": "0x60a0604052606460005534801561001557600080fd5b5060405161110a38038061110a8339810160408190526100349161007e565b6001600160a01b03918216608052600155600280546001600160a01b031916929091169190911790556100ba565b80516001600160a01b038116811461007957600080fd5b919050565b60008060006060848603121561009357600080fd5b61009c84610062565b92506100aa60208501610062565b9150604084015190509250925092565b6080516110126100f8600039600081816101b1015281816102110152818161045401528181610586015281816106440152610aee01526110126000f3fe608060405234801561001057600080fd5b50600436106100b45760003560e01c8063b44c0bdf11610071578063b44c0bdf1461013c578063bd8d18801461015c578063cfc4af5514610165578063d555654414610190578063e4106a2c14610199578063f77c4791146101ac57600080fd5b806317df347e146100b95780633eb4adab146100e157806359ded210146100f65780635ec62e52146101095780638b5c087614610120578063b1cac63b14610129575b600080fd5b6100cc6100c7366004610c16565b6101d3565b60405190151581526020015b60405180910390f35b6100f46100ef366004610c92565b61042b565b005b6100f4610104366004610ccb565b61055d565b61011260005481565b6040519081526020016100d8565b6101126103e881565b6100f4610137366004610ce4565b61061b565b61014f61014a366004610d10565b61080a565b6040516100d89190610d35565b61011261271081565b600254610178906001600160a01b031681565b6040516001600160a01b0390911681526020016100d8565b61011260015481565b6100f46101a7366004610ccb565b610ac5565b6101787f000000000000000000000000000000000000000000000000000000000000000081565b604051632474521560e21b81527ffc8737ab85eb45125971625a9ebdb75cc78e01d5c1fa80c4c6e5203f47bc4fab60048201523360248201526000907f00000000000000000000000000000000000000000000000000000000000000006001600160a01b0316906391d1485490604401602060405180830381865afa158015610260573d6000803e3d6000fd5b505050506040513d601f19601f820116820180604052508101906102849190610d82565b6102a157604051630aaab44b60e21b815260040160405180910390fd5b815160408301516060840151156102da57612710600054826102c39190610dbc565b6102cd9190610dd3565b6102d79082610df5565b90505b6002546040516370a0823160e01b81523060048201526001600160a01b03909116906370a0823190602401602060405180830381865afa158015610322573d6000803e3d6000fd5b505050506040513d601f19601f820116820180604052508101906103469190610e08565b8111156103665760405163254b5e3160e21b815260040160405180910390fd5b60208401516040516301c40a1760e21b81526001600160a01b039182166004820152602481018390526000604482015290831690630710285c906064016020604051808303816000875af19250505080156103de575060408051601f3d908101601f191682019092526103db91810190610d82565b60015b610420576103ea610e21565b806308c379a00361041457506103fe610e3d565b806104095750610416565b506000949350505050565b505b3d6000803e3d6000fd5b506001949350505050565b604051632474521560e21b8152600080516020610fbd83398151915260048201523360248201527f00000000000000000000000000000000000000000000000000000000000000006001600160a01b0316906391d1485490604401602060405180830381865afa1580156104a3573d6000803e3d6000fd5b505050506040513d601f19601f820116820180604052508101906104c79190610d82565b6104e457604051635f5f303560e11b815260040160405180910390fd5b60405163095ea7b360e01b81526001600160a01b038281166004830152600019602483015283169063095ea7b3906044016020604051808303816000875af1158015610534573d6000803e3d6000fd5b505050506040513d601f19601f820116820180604052508101906105589190610d82565b505050565b604051632474521560e21b8152600080516020610fbd83398151915260048201523360248201527f00000000000000000000000000000000000000000000000000000000000000006001600160a01b0316906391d1485490604401602060405180830381865afa1580156105d5573d6000803e3d6000fd5b505050506040513d601f19601f820116820180604052508101906105f99190610d82565b61061657604051635f5f303560e11b815260040160405180910390fd5b600155565b604051632474521560e21b8152600080516020610fbd83398151915260048201523360248201527f00000000000000000000000000000000000000000000000000000000000000006001600160a01b0316906391d1485490604401602060405180830381865afa158015610693573d6000803e3d6000fd5b505050506040513d601f19601f820116820180604052508101906106b79190610d82565b6106d457604051635f5f303560e11b815260040160405180910390fd5b6040516370a0823160e01b815230600482015282906001600160a01b038216906370a0823190602401602060405180830381865afa15801561071a573d6000803e3d6000fd5b505050506040513d601f19601f8201168201806040525081019061073e9190610e08565b82111561075e5760405163254b5e3160e21b815260040160405180910390fd5b60405163a9059cbb60e01b8152336004820152602481018390526001600160a01b0382169063a9059cbb906044016020604051808303816000875af11580156107ab573d6000803e3d6000fd5b505050506040513d601f19601f820116820180604052508101906107cf9190610d82565b5060405182815233907fc30fcfbcaac9e0deffa719714eaa82396ff506a0d0d0eebe170830177288715d9060200160405180910390a2505050565b606060008290506000816001600160a01b03166345982a6686600154886108319190610ec7565b6040516001600160e01b031960e085901b16815260048101929092526024820152604401600060405180830381865afa158015610872573d6000803e3d6000fd5b505050506040513d6000823e601f3d908101601f1916820160405261089a9190810190610eda565b90506000805b825181101561096057836001600160a01b031663e59e80188483815181106108ca576108ca610f8d565b60200260200101516040518263ffffffff1660e01b81526004016108fd91906001600160a01b0391909116815260200190565b602060405180830381865afa15801561091a573d6000803e3d6000fd5b505050506040513d601f19601f8201168201806040525081019061093e9190610d82565b610950578161094c81610fa3565b9250505b61095981610fa3565b90506108a0565b508067ffffffffffffffff81111561097a5761097a610bad565b6040519080825280602002602001820160405280156109a3578160200160208202803683370190505b5093506000905060005b8251811015610aba57836001600160a01b031663e59e80188483815181106109d7576109d7610f8d565b60200260200101516040518263ffffffff1660e01b8152600401610a0a91906001600160a01b0391909116815260200190565b602060405180830381865afa158015610a27573d6000803e3d6000fd5b505050506040513d601f19601f82011682018060405250810190610a4b9190610d82565b610aa857828181518110610a6157610a61610f8d565b6020026020010151858380610a7590610fa3565b945081518110610a8757610a87610f8d565b60200260200101906001600160a01b031690816001600160a01b0316815250505b80610ab281610fa3565b9150506109ad565b505050505b92915050565b604051632474521560e21b8152600080516020610fbd83398151915260048201523360248201527f00000000000000000000000000000000000000000000000000000000000000006001600160a01b0316906391d1485490604401602060405180830381865afa158015610b3d573d6000803e3d6000fd5b505050506040513d601f19601f82011682018060405250810190610b619190610d82565b610b7e57604051635f5f303560e11b815260040160405180910390fd5b6103e8811115610ba8576040516355337df760e01b81526004810182905260240160405180910390fd5b600055565b634e487b7160e01b600052604160045260246000fd5b601f8201601f1916810167ffffffffffffffff81118282101715610be957610be9610bad565b6040525050565b6001600160a01b0381168114610c0557600080fd5b50565b8015158114610c0557600080fd5b600060808284031215610c2857600080fd5b6040516080810181811067ffffffffffffffff82111715610c4b57610c4b610bad565b6040528235610c5981610bf0565b81526020830135610c6981610bf0565b6020820152604083810135908201526060830135610c8681610c08565b60608201529392505050565b60008060408385031215610ca557600080fd5b8235610cb081610bf0565b91506020830135610cc081610bf0565b809150509250929050565b600060208284031215610cdd57600080fd5b5035919050565b60008060408385031215610cf757600080fd5b8235610d0281610bf0565b946020939093013593505050565b60008060408385031215610d2357600080fd5b823591506020830135610cc081610bf0565b6020808252825182820181905260009190848201906040850190845b81811015610d765783516001600160a01b031683529284019291840191600101610d51565b50909695505050505050565b600060208284031215610d9457600080fd5b8151610d9f81610c08565b9392505050565b634e487b7160e01b600052601160045260246000fd5b8082028115828204841417610abf57610abf610da6565b600082610df057634e487b7160e01b600052601260045260246000fd5b500490565b81810381811115610abf57610abf610da6565b600060208284031215610e1a57600080fd5b5051919050565b600060033d1115610e3a5760046000803e5060005160e01c5b90565b600060443d1015610e4b5790565b6040516003193d81016004833e81513d67ffffffffffffffff8160248401118184111715610e7b57505050505090565b8285019150815181811115610e935750505050505090565b843d8701016020828501011115610ead5750505050505090565b610ebc60208286010187610bc3565b509095945050505050565b80820180821115610abf57610abf610da6565b60006020808385031215610eed57600080fd5b825167ffffffffffffffff80821115610f0557600080fd5b818501915085601f830112610f1957600080fd5b815181811115610f2b57610f2b610bad565b8060051b9150604051610f4085840182610bc3565b81815291830184019184810188841115610f5957600080fd5b938501935b83851015610f815784519250610f7383610bf0565b828152938501938501610f5e565b50979650505050505050565b634e487b7160e01b600052603260045260246000fd5b600060018201610fb557610fb5610da6565b506001019056fea5a0b70b385ff7611cd3840916bd08b10829e5bf9e6637cf79dd9a427fc0e2aba2646970667358221220b09b12a0fdf7d1d71ce82829d70945af41bb7d9176c4e8296d21c2bed72c661f64736f6c63430008110033",
  "devdoc": {
    "kind": "dev",
    "methods": {
      "approveTokens(address,address)": {
        "details": "approve any token to the swapRouter. note this is calleable by anyone."
      },
      "fetchUnhealthyAccounts(uint256,address)": {
        "details": "fetch the unhealthy accounts for the given vault"
      },
      "liquidate((address,address,uint256,bool))": {
        "details": "This function can be invoked by any one to liquidate the account and returns true if succeeds, false otherwise note This function takes liquidation params as input in which the amount can be      provided either inclusive/exclusive of offset"
      },
      "setOffsetPercentage(uint256)": {
        "details": "Function to set the offset percentage"
      }
    },
    "version": 1
  },
  "userdoc": {
    "kind": "user",
    "methods": {},
    "version": 1
  },
  "storageLayout": {
    "storage": [
      {
        "astId": 7706,
        "contract": "contracts/LiquidationBot/LiquidationBot.sol:LiquidationBot",
        "label": "percOffset",
        "offset": 0,
        "slot": "0",
        "type": "t_uint256"
      },
      {
        "astId": 7714,
        "contract": "contracts/LiquidationBot/LiquidationBot.sol:LiquidationBot",
        "label": "offset",
        "offset": 0,
        "slot": "1",
        "type": "t_uint256"
      },
      {
        "astId": 7717,
        "contract": "contracts/LiquidationBot/LiquidationBot.sol:LiquidationBot",
        "label": "tau",
        "offset": 0,
        "slot": "2",
        "type": "t_contract(IERC20)2320"
      }
    ],
    "types": {
      "t_contract(IERC20)2320": {
        "encoding": "inplace",
        "label": "contract IERC20",
        "numberOfBytes": "20"
      },
      "t_uint256": {
        "encoding": "inplace",
        "label": "uint256",
        "numberOfBytes": "32"
      }
    }
  }
}