{
  "address": "0x7C11ee17E8283B309EbF745462Da079a80fFBa5d",
  "abi": [
    {
      "inputs": [
        {
          "internalType": "address",
          "name": "_testWethAddress",
          "type": "address"
        }
      ],
      "stateMutability": "nonpayable",
      "type": "constructor"
    },
    {
      "inputs": [],
      "name": "claimFees",
      "outputs": [],
      "stateMutability": "nonpayable",
      "type": "function"
    },
    {
      "inputs": [],
      "name": "compound",
      "outputs": [],
      "stateMutability": "nonpayable",
      "type": "function"
    },
    {
      "inputs": [],
      "name": "testWeth",
      "outputs": [
        {
          "internalType": "address",
          "name": "",
          "type": "address"
        }
      ],
      "stateMutability": "view",
      "type": "function"
    }
  ],
  "transactionHash": "0xa2d60aa44f39077a8d4c41453387abb9a5f47799676fda0a9cfcc5b7e9c94c0c",
  "args": [
    "0xc1aE84Dc218720ef2E24C34E86Ae022f5c1BaE90"
  ],
  "numDeployments": 1,
  "solcInputHash": "905c5c68041e852c361757098a1bcca2",
  "bytecode": "0x60a060405234801561001057600080fd5b506040516102c53803806102c583398101604081905261002f91610040565b6001600160a01b0316608052610070565b60006020828403121561005257600080fd5b81516001600160a01b038116811461006957600080fd5b9392505050565b60805161022e61009760003960008181604b0152818160ab015261013d015261022e6000f3fe608060405234801561001057600080fd5b50600436106100415760003560e01c806322d8633814610046578063d294f09314610089578063f69e204614610091575b600080fd5b61006d7f000000000000000000000000000000000000000000000000000000000000000081565b6040516001600160a01b03909116815260200160405180910390f35b610091610093565b005b6040516370a0823160e01b81523060048201526000907f00000000000000000000000000000000000000000000000000000000000000006001600160a01b0316906370a0823190602401602060405180830381865afa1580156100fa573d6000803e3d6000fd5b505050506040513d601f19601f8201168201806040525081019061011e91906101b6565b60405163a9059cbb60e01b8152336004820152602481018290529091507f00000000000000000000000000000000000000000000000000000000000000006001600160a01b03169063a9059cbb906044016020604051808303816000875af115801561018e573d6000803e3d6000fd5b505050506040513d601f19601f820116820180604052508101906101b291906101cf565b5050565b6000602082840312156101c857600080fd5b5051919050565b6000602082840312156101e157600080fd5b815180151581146101f157600080fd5b939250505056fea264697066735822122062c20e31cc8ebfb2c8a05c651448537da98fa06412d5103ae05fb7daafb9e2b964736f6c63430008110033",
  "devdoc": {
    "kind": "dev",
    "methods": {},
    "version": 1
  },
  "userdoc": {
    "kind": "user",
    "methods": {},
    "version": 1
  },
  "storageLayout": {
    "storage": [],
    "types": null
  }
}