{
  "address": "0x5D2ab955294e2D1ec042f102Dc3C1d20b469E40f",
  "abi": [
    {
      "inputs": [
        {
          "internalType": "address",
          "name": "_swapRouter",
          "type": "address"
        }
      ],
      "stateMutability": "nonpayable",
      "type": "constructor"
    },
    {
      "inputs": [],
      "name": "incorrectOutputToken",
      "type": "error"
    },
    {
      "inputs": [
        {
          "internalType": "address",
          "name": "_tokenIn",
          "type": "address"
        }
      ],
      "name": "approveTokens",
      "outputs": [],
      "stateMutability": "nonpayable",
      "type": "function"
    },
    {
      "inputs": [
        {
          "internalType": "address",
          "name": "_outputToken",
          "type": "address"
        },
        {
          "internalType": "bytes",
          "name": "_swapData",
          "type": "bytes"
        }
      ],
      "name": "swap",
      "outputs": [
        {
          "internalType": "uint256",
          "name": "",
          "type": "uint256"
        }
      ],
      "stateMutability": "nonpayable",
      "type": "function"
    },
    {
      "inputs": [],
      "name": "swapRouter",
      "outputs": [
        {
          "internalType": "address",
          "name": "",
          "type": "address"
        }
      ],
      "stateMutability": "view",
      "type": "function"
    }
  ],
  "args": [
    "0xE592427A0AEce92De3Edee1F18E0157C05861564"
  ],
  "numDeployments": 1,
  "solcInputHash": "905c5c68041e852c361757098a1bcca2",
  "bytecode": "0x60a060405234801561001057600080fd5b5060405161065538038061065583398101604081905261002f91610040565b6001600160a01b0316608052610070565b60006020828403121561005257600080fd5b81516001600160a01b038116811461006957600080fd5b9392505050565b6080516105be6100976000396000818160600152818160d7015261020901526105be6000f3fe608060405234801561001057600080fd5b50600436106100415760003560e01c806328a2234814610046578063c31c9c071461005b578063e35473351461009f575b600080fd5b6100596100543660046102b4565b6100c0565b005b6100827f000000000000000000000000000000000000000000000000000000000000000081565b6040516001600160a01b0390911681526020015b60405180910390f35b6100b26100ad3660046102d6565b610158565b604051908152602001610096565b60405163095ea7b360e01b81526001600160a01b037f000000000000000000000000000000000000000000000000000000000000000081166004830152600019602483015282169063095ea7b3906044016020604051808303816000875af1158015610130573d6000803e3d6000fd5b505050506040513d601f19601f820116820180604052508101906101549190610359565b5050565b60008080808061016a86880188610391565b92965090945092509050856000888261018460298261045f565b9061019060158661045f565b9261019d93929190610486565b6101a6916104b0565b60601c90506001600160a01b038a1681146101d4576040516339a40be560e11b815260040160405180910390fd5b6040805160a0810182528481523360208201528082018890526060810187905260808101869052905163c04b8d5960e01b81527f00000000000000000000000000000000000000000000000000000000000000006001600160a01b03169063c04b8d59906102469084906004016104e5565b6020604051808303816000875af1158015610265573d6000803e3d6000fd5b505050506040513d601f19601f82011682018060405250810190610289919061056f565b9b9a5050505050505050505050565b80356001600160a01b03811681146102af57600080fd5b919050565b6000602082840312156102c657600080fd5b6102cf82610298565b9392505050565b6000806000604084860312156102eb57600080fd5b6102f484610298565b9250602084013567ffffffffffffffff8082111561031157600080fd5b818601915086601f83011261032557600080fd5b81358181111561033457600080fd5b87602082850101111561034657600080fd5b6020830194508093505050509250925092565b60006020828403121561036b57600080fd5b815180151581146102cf57600080fd5b634e487b7160e01b600052604160045260246000fd5b600080600080608085870312156103a757600080fd5b843593506020850135925060408501359150606085013567ffffffffffffffff808211156103d457600080fd5b818701915087601f8301126103e857600080fd5b8135818111156103fa576103fa61037b565b604051601f8201601f19908116603f011681019083821181831017156104225761042261037b565b816040528281528a602084870101111561043b57600080fd5b82602086016020830137600060208483010152809550505050505092959194509250565b8181038181111561048057634e487b7160e01b600052601160045260246000fd5b92915050565b6000808585111561049657600080fd5b838611156104a357600080fd5b5050820193919092039150565b6bffffffffffffffffffffffff1981358181169160148510156104dd5780818660140360031b1b83161692505b505092915050565b60006020808352835160a08285015280518060c086015260005b8181101561051b5782810184015186820160e0015283016104ff565b50600060e08287010152918501516001600160a01b0381166040860152916040860151606086015260608601516080860152608086015160a086015260e0601f19601f830116860101935050505092915050565b60006020828403121561058157600080fd5b505191905056fea2646970667358221220911412a25bdc65ab7c6a934a38291127dca84a3c46ef126c889297eda9ecf48e64736f6c63430008110033",
  "devdoc": {
    "details": "this contract exposes necessary logic to swap between tokens using Uniswap. note that it should only hold tokens mid-transaction. Any tokens transferred in outside of a swap can be stolen.",
    "kind": "dev",
    "methods": {
      "approveTokens(address)": {
        "details": "approve any token to the swapRouter. note this is calleable by anyone."
      }
    },
    "version": 1
  },
  "userdoc": {
    "kind": "user",
    "methods": {},
    "version": 1
  },
  "storageLayout": {
    "storage": [],
    "types": null
  }
}